{
  "transactions": [
    {
      "hash": "0x551bf6cde3e82acc6dafacf33d9f17e33eb9379095856c39828246d9eab16db5",
      "transactionType": "CREATE",
      "contractName": "MockWBTC",
      "contractAddress": "0xe28c059f74e0044c01bd06e9b0a2642d5d1717e6",
      "function": null,
      "arguments": null,
      "transaction": {
        "from": "0x823ef872d97f3cffd1e3d491c9560eb0d3886d56",
        "gas": "0xb39c0",
        "value": "0x0",
        "input": "0x608060405234801562000010575f80fd5b506040518060400160405280600f81526020016e2bb930b83832b2102134ba31b7b4b760891b815250604051806040016040528060048152602001635742544360e01b8152508160039081620000679190620002a9565b506004620000768282620002a9565b5050506200009433683635c9adc5dea000006200009a60201b60201c565b62000397565b6001600160a01b038216620000c95760405163ec442f0560e01b81525f60048201526024015b60405180910390fd5b620000d65f8383620000da565b5050565b6001600160a01b03831662000108578060025f828254620000fc919062000371565b909155506200017a9050565b6001600160a01b0383165f90815260208190526040902054818110156200015c5760405163391434e360e21b81526001600160a01b03851660048201526024810182905260448101839052606401620000c0565b6001600160a01b0384165f9081526020819052604090209082900390555b6001600160a01b0382166200019857600280548290039055620001b6565b6001600160a01b0382165f9081526020819052604090208054820190555b816001600160a01b0316836001600160a01b03167fddf252ad1be2c89b69c2b068fc378daa952ba7f163c4a11628f55a4df523b3ef83604051620001fc91815260200190565b60405180910390a3505050565b634e487b7160e01b5f52604160045260245ffd5b600181811c908216806200023257607f821691505b6020821081036200025157634e487b7160e01b5f52602260045260245ffd5b50919050565b601f821115620002a4575f81815260208120601f850160051c810160208610156200027f5750805b601f850160051c820191505b81811015620002a0578281556001016200028b565b5050505b505050565b81516001600160401b03811115620002c557620002c562000209565b620002dd81620002d684546200021d565b8462000257565b602080601f83116001811462000313575f8415620002fb5750858301515b5f19600386901b1c1916600185901b178555620002a0565b5f85815260208120601f198616915b82811015620003435788860151825594840194600190910190840162000322565b50858210156200036157878501515f19600388901b60f8161c191681555b5050505050600190811b01905550565b808201808211156200039157634e487b7160e01b5f52601160045260245ffd5b92915050565b61075b80620003a55f395ff3fe608060405234801561000f575f80fd5b506004361061009b575f3560e01c806340c10f191161006357806340c10f191461011457806370a082311461012957806395d89b4114610151578063a9059cbb14610159578063dd62ed3e1461016c575f80fd5b806306fdde031461009f578063095ea7b3146100bd57806318160ddd146100e057806323b872dd146100f2578063313ce56714610105575b5f80fd5b6100a76101a4565b6040516100b491906105b6565b60405180910390f35b6100d06100cb36600461061c565b610234565b60405190151581526020016100b4565b6002545b6040519081526020016100b4565b6100d0610100366004610644565b61024d565b604051601281526020016100b4565b61012761012236600461061c565b610270565b005b6100e461013736600461067d565b6001600160a01b03165f9081526020819052604090205490565b6100a761027e565b6100d061016736600461061c565b61028d565b6100e461017a36600461069d565b6001600160a01b039182165f90815260016020908152604080832093909416825291909152205490565b6060600380546101b3906106ce565b80601f01602080910402602001604051908101604052809291908181526020018280546101df906106ce565b801561022a5780601f106102015761010080835404028352916020019161022a565b820191905f5260205f20905b81548152906001019060200180831161020d57829003601f168201915b5050505050905090565b5f3361024181858561029a565b60019150505b92915050565b5f3361025a8582856102ac565b61026585858561032d565b506001949350505050565b61027a828261038a565b5050565b6060600480546101b3906106ce565b5f3361024181858561032d565b6102a783838360016103be565b505050565b6001600160a01b038381165f908152600160209081526040808320938616835292905220545f19811015610327578181101561031957604051637dc7a0d960e11b81526001600160a01b038416600482015260248101829052604481018390526064015b60405180910390fd5b61032784848484035f6103be565b50505050565b6001600160a01b03831661035657604051634b637e8f60e11b81525f6004820152602401610310565b6001600160a01b03821661037f5760405163ec442f0560e01b81525f6004820152602401610310565b6102a7838383610490565b6001600160a01b0382166103b35760405163ec442f0560e01b81525f6004820152602401610310565b61027a5f8383610490565b6001600160a01b0384166103e75760405163e602df0560e01b81525f6004820152602401610310565b6001600160a01b03831661041057604051634a1406b160e11b81525f6004820152602401610310565b6001600160a01b038085165f908152600160209081526040808320938716835292905220829055801561032757826001600160a01b0316846001600160a01b03167f8c5be1e5ebec7d5bd14f71427d1e84f3dd0314c0f7b2291e5b200ac8c7c3b9258460405161048291815260200190565b60405180910390a350505050565b6001600160a01b0383166104ba578060025f8282546104af9190610706565b9091555061052a9050565b6001600160a01b0383165f908152602081905260409020548181101561050c5760405163391434e360e21b81526001600160a01b03851660048201526024810182905260448101839052606401610310565b6001600160a01b0384165f9081526020819052604090209082900390555b6001600160a01b03821661054657600280548290039055610564565b6001600160a01b0382165f9081526020819052604090208054820190555b816001600160a01b0316836001600160a01b03167fddf252ad1be2c89b69c2b068fc378daa952ba7f163c4a11628f55a4df523b3ef836040516105a991815260200190565b60405180910390a3505050565b5f6020808352835180828501525f5b818110156105e1578581018301518582016040015282016105c5565b505f604082860101526040601f19601f8301168501019250505092915050565b80356001600160a01b0381168114610617575f80fd5b919050565b5f806040838503121561062d575f80fd5b61063683610601565b946020939093013593505050565b5f805f60608486031215610656575f80fd5b61065f84610601565b925061066d60208501610601565b9150604084013590509250925092565b5f6020828403121561068d575f80fd5b61069682610601565b9392505050565b5f80604083850312156106ae575f80fd5b6106b783610601565b91506106c560208401610601565b90509250929050565b600181811c908216806106e257607f821691505b60208210810361070057634e487b7160e01b5f52602260045260245ffd5b50919050565b8082018082111561024757634e487b7160e01b5f52601160045260245ffdfea264697066735822122093fa2c8533ae52af6ecbca5bb5053e441bd66e1e30dcaefd45aa1830a58c033664736f6c63430008140033",
        "nonce": "0x1b",
        "chainId": "0xbf02"
      },
      "additionalContracts": [],
      "isFixedGasLimit": false
    },
    {
      "hash": "0xf89b90e70ee0efa13125bbce58d9fa762eef4407f1376fca154201e6fb25b953",
      "transactionType": "CREATE",
      "contractName": "LendingProtocol",
      "contractAddress": "0x6fa1e07ee11171753828d79cd63d5bfddb6024c6",
      "function": null,
      "arguments": [
        "0x0000000000000000000000000000000000000001"
      ],
      "transaction": {
        "from": "0x823ef872d97f3cffd1e3d491c9560eb0d3886d56",
        "gas": "0x80420",
        "value": "0x0",
        "input": "0x608060405234801561000f575f80fd5b5060405161067438038061067483398101604081905261002e91610053565b600280546001600160a01b0319166001600160a01b0392909216919091179055610080565b5f60208284031215610063575f80fd5b81516001600160a01b0381168114610079575f80fd5b9392505050565b6105e78061008d5f395ff3fe608060405234801561000f575f80fd5b50600436106100cf575f3560e01c8063a8a087951161007d578063b9f4ff5511610058578063b9f4ff551461021e578063bad4a01f14610260578063f69f1e4a14610273575f80fd5b8063a8a08795146101b8578063b2016bd4146101cb578063b6f7132f146101f6575f80fd5b8063666181a9116100ad578063666181a91461013a5780636ad9f9df1461017757806390a8ae9b146101a9575f80fd5b806309d6dda2146100d3578063142f6f18146100fe57806326c0130314610127575b5f80fd5b6100fc6100e13660046104ba565b6001600160a01b039091165f90815260016020526040902055565b005b6100fc61010c3660046104ba565b6001600160a01b039091165f90815260208190526040902055565b6100fc6101353660046104e2565b610292565b6100fc61014836600461051b565b6002805473ffffffffffffffffffffffffffffffffffffffff19166001600160a01b0392909216919091179055565b61019661018536600461051b565b5f6020819052908152604090205481565b6040519081526020015b60405180910390f35b610196670de0b6b3a764000081565b6100fc6101c636600461051b565b6103a3565b6002546101de906001600160a01b031681565b6040516001600160a01b0390911681526020016101a0565b61019661020436600461051b565b6001600160a01b03165f9081526001602052604090205490565b61025061022c36600461051b565b6001600160a01b03165f90815260208190526040902054670de0b6b3a76400001190565b60405190151581526020016101a0565b6100fc61026e36600461053b565b610400565b61019661028136600461051b565b60016020525f908152604090205481565b6001600160a01b0383165f908152600160205260409020548111156102fd5760405162461bcd60e51b815260206004820152601760248201527f496e73756666696369656e7420636f6c6c61746572616c000000000000000000604482015260640160405180910390fd5b60025460405163a9059cbb60e01b81526001600160a01b038481166004830152602482018490529091169063a9059cbb906044016020604051808303815f875af115801561034d573d5f803e3d5ffd5b505050506040513d601f19601f820116820180604052508101906103719190610552565b506001600160a01b0383165f9081526001602052604081208054839290610399908490610585565b9091555050505050565b60025460405163a8a0879560e01b81526001600160a01b0383811660048301529091169063a8a08795906024015f604051808303815f87803b1580156103e7575f80fd5b505af11580156103f9573d5f803e3d5ffd5b5050505050565b6002546040516323b872dd60e01b8152336004820152306024820152604481018390526001600160a01b03909116906323b872dd906064016020604051808303815f875af1158015610454573d5f803e3d5ffd5b505050506040513d601f19601f820116820180604052508101906104789190610552565b50335f908152600160205260408120805483929061049790849061059e565b909155505050565b80356001600160a01b03811681146104b5575f80fd5b919050565b5f80604083850312156104cb575f80fd5b6104d48361049f565b946020939093013593505050565b5f805f606084860312156104f4575f80fd5b6104fd8461049f565b925061050b6020850161049f565b9150604084013590509250925092565b5f6020828403121561052b575f80fd5b6105348261049f565b9392505050565b5f6020828403121561054b575f80fd5b5035919050565b5f60208284031215610562575f80fd5b81518015158114610534575f80fd5b634e487b7160e01b5f52601160045260245ffd5b8181038181111561059857610598610571565b92915050565b808201808211156105985761059861057156fea264697066735822122075f26b973449c00d37839424580df4b574233cb4e96a73d464862e1d5a520f4f64736f6c634300081400330000000000000000000000000000000000000000000000000000000000000001",
        "nonce": "0x1c",
        "chainId": "0xbf02"
      },
      "additionalContracts": [],
      "isFixedGasLimit": false
    },
    {
      "hash": "0x4e3848d11a5e1527b47d765484792b9048559682ef95b3ea15216a9fbb1c0d24",
      "transactionType": "CREATE",
      "contractName": "CircuitBreakerToken",
      "contractAddress": "0xdd06e97090469a67b14fdc1dedea7af6b3f06ed3",
      "function": null,
      "arguments": [
        "Circuit Breaker Wrapped Bitcoin",
        "cWBTC",
        "0xE28C059f74e0044C01bD06e9B0A2642D5d1717e6",
        "15",
        "15",
        "0x6Fa1E07Ee11171753828D79Cd63d5bFDdb6024C6"
      ],
      "transaction": {
        "from": "0x823ef872d97f3cffd1e3d491c9560eb0d3886d56",
        "gas": "0x1ba552",
        "value": "0x0",
        "input": "0x61010060405234801562000011575f80fd5b5060405162001af238038062001af2833981016040819052620000349162000154565b858560036200004483826200027b565b5060046200005382826200027b565b5050506001600160a01b0393841660805260a09290925260c0521660e05250620003439050565b634e487b7160e01b5f52604160045260245ffd5b5f82601f8301126200009e575f80fd5b81516001600160401b0380821115620000bb57620000bb6200007a565b604051601f8301601f19908116603f01168101908282118183101715620000e657620000e66200007a565b8160405283815260209250868385880101111562000102575f80fd5b5f91505b8382101562000125578582018301518183018401529082019062000106565b5f93810190920192909252949350505050565b80516001600160a01b03811681146200014f575f80fd5b919050565b5f805f805f8060c087890312156200016a575f80fd5b86516001600160401b038082111562000181575f80fd5b6200018f8a838b016200008e565b97506020890151915080821115620001a5575f80fd5b50620001b489828a016200008e565b955050620001c56040880162000138565b93506060870151925060808701519150620001e360a0880162000138565b90509295509295509295565b600181811c908216806200020457607f821691505b6020821081036200022357634e487b7160e01b5f52602260045260245ffd5b50919050565b601f82111562000276575f81815260208120601f850160051c81016020861015620002515750805b601f850160051c820191505b8181101562000272578281556001016200025d565b5050505b505050565b81516001600160401b038111156200029757620002976200007a565b620002af81620002a88454620001ef565b8462000229565b602080601f831160018114620002e5575f8415620002cd5750858301515b5f19600386901b1c1916600185901b17855562000272565b5f85815260208120601f198616915b828110156200031557888601518255948401946001909101908401620002f4565b50858210156200033357878501515f19600388901b60f8161c191681555b5050505050600190811b01905550565b60805160a05160c05160e05161172e620003c45f395f818161032f015281816107450152818161097b015281816109ca01528181610c290152610ccf01525f81816103c1015281816106480152610b6a01525f81816101bf0152610b3d01525f81816102990152818161052c015281816106b80152610e08015261172e5ff3fe608060405234801561000f575f80fd5b5060043610610175575f3560e01c806370a08231116100dd578063a9059cbb11610088578063b7222afc11610063578063b7222afc14610392578063ce0cc613146103bc578063dd62ed3e146103e3575f80fd5b8063a9059cbb14610364578063b070772614610377578063b6b55f251461037f575f80fd5b806395d89b41116100b857806395d89b41146103225780639fc073e01461032a578063a8a0879514610351575f80fd5b806370a08231146102d357806377d5374f146102fb5780638d5c3dda1461031a575f80fd5b806323b872dd1161013d5780634e5a60de116101185780634e5a60de1461024d5780635f5c8fe9146102755780636f307dc314610294575f80fd5b806323b872dd146102165780632e1a7d4d14610229578063313ce5671461023e575f80fd5b806306fdde0314610179578063095ea7b3146101975780630baa9ed6146101ba5780630e527130146101ef57806318160ddd1461020e575b5f80fd5b61018161041b565b60405161018e91906114eb565b60405180910390f35b6101aa6101a5366004611551565b6104ab565b604051901515815260200161018e565b6101e17f000000000000000000000000000000000000000000000000000000000000000081565b60405190815260200161018e565b6101e16101fd366004611579565b60066020525f908152604090205481565b6002546101e1565b6101aa610224366004611592565b6104e3565b61023c6102373660046115cb565b610506565b005b6040516012815260200161018e565b61026061025b366004611579565b6105d8565b6040805192835260208301919091520161018e565b6101e1610283366004611579565b60076020525f908152604090205481565b6102bb7f000000000000000000000000000000000000000000000000000000000000000081565b6040516001600160a01b03909116815260200161018e565b6101e16102e1366004611579565b6001600160a01b03165f9081526020819052604090205490565b6101e1610309366004611579565b60086020525f908152604090205481565b6101e1606481565b61018161088b565b6102bb7f000000000000000000000000000000000000000000000000000000000000000081565b61023c61035f366004611579565b61089a565b6101aa610372366004611551565b610dcf565b6101e1600a81565b61023c61038d3660046115cb565b610de6565b6101e16103a03660046115e2565b600560209081525f928352604080842090915290825290205481565b6101e17f000000000000000000000000000000000000000000000000000000000000000081565b6101e16103f13660046115e2565b6001600160a01b039182165f90815260016020908152604080832093909416825291909152205490565b60606003805461042a90611613565b80601f016020809104026020016040519081016040528092919081815260200182805461045690611613565b80156104a15780601f10610478576101008083540402835291602001916104a1565b820191905f5260205f20905b81548152906001019060200180831161048457829003601f168201915b5050505050905090565b335f9081526005602090815260408083206001600160a01b038616845290915281204390556104da8383610eb7565b90505b92915050565b5f336104f0858285610ec4565b6104fb858585610f40565b506001949350505050565b6105103382610fa2565b60405163a9059cbb60e01b8152336004820152602481018290527f00000000000000000000000000000000000000000000000000000000000000006001600160a01b03169063a9059cbb906044016020604051808303815f875af115801561057a573d5f803e3d5ffd5b505050506040513d601f19601f8201168201806040525081019061059e919061164b565b5060405181815233907f884edad9ce6fa2440d8a54cc123490eb96d2768479d49ff9c7366125a9424364906020015b60405180910390a250565b6001600160a01b0381165f90815260066020908152604080832054600790925282205482919081830361061157505f9485945092505050565b8143101561062557505f9485945092505050565b8043111561063957505f9485945092505050565b5f6106448343611685565b90507f00000000000000000000000000000000000000000000000000000000000000008082610675600a6064611685565b61067f9190611698565b61068991906116af565b61069490600a6116ce565b6040516370a0823160e01b81526001600160a01b0389811660048301529197505f917f000000000000000000000000000000000000000000000000000000000000000016906370a0823190602401602060405180830381865afa1580156106fd573d5f803e3d5ffd5b505050506040513d601f19601f8201168201806040525081019061072191906116e1565b60405163b6f7132f60e01b81526001600160a01b038a811660048301529192505f917f0000000000000000000000000000000000000000000000000000000000000000169063b6f7132f90602401602060405180830381865afa15801561078a573d5f803e3d5ffd5b505050506040513d601f19601f820116820180604052508101906107ae91906116e1565b9050606482158015906107c057505f82115b15610841575f826107d2856064611698565b6107dc91906116af565b90505f606482106107ef57506032610803565b603282106107ff57506046610803565b5060645b606481101561083e575f868861081a846064611685565b6108249190611698565b61082e91906116af565b905061083a81836116ce565b9350505b50505b8089111561084d578098505b6001600160a01b038a165f90815260086020526040902054606490610873908b90611698565b61087d91906116af565b975050505050505050915091565b60606004805461042a90611613565b33803b905f9060091080156108ae57505f82115b156109705760405163b9f4ff5560e01b81526001600160a01b0384166004820152339063b9f4ff5590602401602060405180830381865afa925050508015610913575060408051601f3d908101601f191682019092526109109181019061164b565b60015b15610970578061096a5760405162461bcd60e51b815260206004820152601960248201527f506f736974696f6e206e6f74206c6971756964617461626c650000000000000060448201526064015b60405180910390fd5b60019150505b801580156109a657507f00000000000000000000000000000000000000000000000000000000000000006001600160a01b031615155b15610a815760405163b9f4ff5560e01b81526001600160a01b0384811660048301527f0000000000000000000000000000000000000000000000000000000000000000169063b9f4ff5590602401602060405180830381865afa925050508015610a2d575060408051601f3d908101601f19168201909252610a2a9181019061164b565b60015b15610a815780610a7f5760405162461bcd60e51b815260206004820152601960248201527f506f736974696f6e206e6f74206c6971756964617461626c65000000000000006044820152606401610961565b505b6001600160a01b0383165f908152600660205260409020548015610b37576001600160a01b0384165f90815260076020526040902054438110610b065760405162461bcd60e51b815260206004820152601d60248201527f4c69717569646174696f6e20616c726561647920696e697469617465640000006044820152606401610961565b506001600160a01b0384165f9081526006602090815260408083208390556007825280832083905560089091528120555b5f610b627f0000000000000000000000000000000000000000000000000000000000000000436116ce565b90505f610b8f7f0000000000000000000000000000000000000000000000000000000000000000836116ce565b90505f600933118015610ba157505f86115b15610cb05760405163b6f7132f60e01b81526001600160a01b0388166004820152339063b6f7132f90602401602060405180830381865afa925050508015610c06575060408051601f3d908101601f19168201909252610c03918101906116e1565b60015b610ca95760405163b6f7132f60e01b81526001600160a01b0388811660048301527f0000000000000000000000000000000000000000000000000000000000000000169063b6f7132f90602401602060405180830381865afa925050508015610c8c575060408051601f3d908101601f19168201909252610c89918101906116e1565b60015b610ca9576001600160a01b0387165f908152602081905260409020545b9050610d56565b60405163b6f7132f60e01b81526001600160a01b0388811660048301527f0000000000000000000000000000000000000000000000000000000000000000169063b6f7132f90602401602060405180830381865afa925050508015610d32575060408051601f3d908101601f19168201909252610d2f918101906116e1565b60015b610d53576001600160a01b0387165f90815260208190526040902054610ca9565b90505b6001600160a01b0387165f81815260066020908152604080832087905560078252808320869055600882529182902084905581518681529081018590529081018390527f805cd298070afacb59b0ad84de28e6bf29b424f566c3ed0f61944a0378b947bf9060600160405180910390a250505050505050565b5f33610ddc818585610f40565b5060019392505050565b6040516323b872dd60e01b8152336004820152306024820152604481018290527f00000000000000000000000000000000000000000000000000000000000000006001600160a01b0316906323b872dd906064016020604051808303815f875af1158015610e56573d5f803e3d5ffd5b505050506040513d601f19601f82011682018060405250810190610e7a919061164b565b50610e853382610fda565b60405181815233907fe1fffcc4923d04b559f4d29a8bfc6cda04eb5b0d3c460751c2402c5c5cc9109c906020016105cd565b5f33610ddc81858561100e565b6001600160a01b038381165f908152600160209081526040808320938616835292905220545f19811015610f3a5781811015610f2c57604051637dc7a0d960e11b81526001600160a01b03841660048201526024810182905260448101839052606401610961565b610f3a84848484035f611017565b50505050565b6001600160a01b038316610f6957604051634b637e8f60e11b81525f6004820152602401610961565b6001600160a01b038216610f925760405163ec442f0560e01b81525f6004820152602401610961565b610f9d8383836110e9565b505050565b6001600160a01b038216610fcb57604051634b637e8f60e11b81525f6004820152602401610961565b610fd6825f836110e9565b5050565b6001600160a01b0382166110035760405163ec442f0560e01b81525f6004820152602401610961565b610fd65f83836110e9565b610f9d83838360015b6001600160a01b0384166110405760405163e602df0560e01b81525f6004820152602401610961565b6001600160a01b03831661106957604051634a1406b160e11b81525f6004820152602401610961565b6001600160a01b038085165f9081526001602090815260408083209387168352929052208290558015610f3a57826001600160a01b0316846001600160a01b03167f8c5be1e5ebec7d5bd14f71427d1e84f3dd0314c0f7b2291e5b200ac8c7c3b925846040516110db91815260200190565b60405180910390a350505050565b6001600160a01b038316158061110657506001600160a01b038216155b1561111657610f9d8383836113c5565b6001600160a01b038316330361113157610f9d8383836113c5565b333b801561114457610f3a8484846113c5565b6001600160a01b0384165f908152600560209081526040808320338452909152902054431480156111815761117a8585856113c5565b5050505050565b6001600160a01b0385165f908152600660209081526040808320546007909252822054909182900361121b5760405162461bcd60e51b815260206004820152602f60248201527f43697263756974427265616b65723a206d75737420696e697469617465206c6960448201527f717569646174696f6e20666972737400000000000000000000000000000000006064820152608401610961565b8143101561127b5760405162461bcd60e51b815260206004820152602760248201527f43697263756974427265616b65723a206c69717569646174696f6e20696e206360448201526637b7b63237bbb760c91b6064820152608401610961565b80431115611310576001600160a01b0387165f908152600660209081526040808320839055600782528083208390556008825280832092909255905162461bcd60e51b81526004810191909152602a60248201527f43697263756974427265616b65723a206c69717569646174696f6e2077696e646044820152691bddc8195e1c1a5c995960b21b6064820152608401610961565b5f61131a886105d8565b915050808611156113815760405162461bcd60e51b815260206004820152602b60248201527f43697263756974427265616b65723a2065786365656473206c6971756964617460448201526a18589b1948185b5bdd5b9d60aa1b6064820152608401610961565b6001600160a01b0388165f9081526006602090815260408083208390556007825280832083905560089091528120556113bb8888886113c5565b5050505050505050565b6001600160a01b0383166113ef578060025f8282546113e491906116ce565b9091555061145f9050565b6001600160a01b0383165f90815260208190526040902054818110156114415760405163391434e360e21b81526001600160a01b03851660048201526024810182905260448101839052606401610961565b6001600160a01b0384165f9081526020819052604090209082900390555b6001600160a01b03821661147b57600280548290039055611499565b6001600160a01b0382165f9081526020819052604090208054820190555b816001600160a01b0316836001600160a01b03167fddf252ad1be2c89b69c2b068fc378daa952ba7f163c4a11628f55a4df523b3ef836040516114de91815260200190565b60405180910390a3505050565b5f6020808352835180828501525f5b81811015611516578581018301518582016040015282016114fa565b505f604082860101526040601f19601f8301168501019250505092915050565b80356001600160a01b038116811461154c575f80fd5b919050565b5f8060408385031215611562575f80fd5b61156b83611536565b946020939093013593505050565b5f60208284031215611589575f80fd5b6104da82611536565b5f805f606084860312156115a4575f80fd5b6115ad84611536565b92506115bb60208501611536565b9150604084013590509250925092565b5f602082840312156115db575f80fd5b5035919050565b5f80604083850312156115f3575f80fd5b6115fc83611536565b915061160a60208401611536565b90509250929050565b600181811c9082168061162757607f821691505b60208210810361164557634e487b7160e01b5f52602260045260245ffd5b50919050565b5f6020828403121561165b575f80fd5b8151801515811461166a575f80fd5b9392505050565b634e487b7160e01b5f52601160045260245ffd5b818103818111156104dd576104dd611671565b80820281158282048414176104dd576104dd611671565b5f826116c957634e487b7160e01b5f52601260045260245ffd5b500490565b808201808211156104dd576104dd611671565b5f602082840312156116f1575f80fd5b505191905056fea2646970667358221220799faaed3a6e3ec477c3cd6df01e7c968c92c32ca0c40025d4f79dca6541f00064736f6c6343000814003300000000000000000000000000000000000000000000000000000000000000c00000000000000000000000000000000000000000000000000000000000000100000000000000000000000000e28c059f74e0044c01bd06e9b0a2642d5d1717e6000000000000000000000000000000000000000000000000000000000000000f000000000000000000000000000000000000000000000000000000000000000f0000000000000000000000006fa1e07ee11171753828d79cd63d5bfddb6024c6000000000000000000000000000000000000000000000000000000000000001f4369726375697420427265616b6572205772617070656420426974636f696e0000000000000000000000000000000000000000000000000000000000000000056357425443000000000000000000000000000000000000000000000000000000",
        "nonce": "0x1d",
        "chainId": "0xbf02"
      },
      "additionalContracts": [],
      "isFixedGasLimit": false
    },
    {
      "hash": "0xc94e4011b4c27eefe43f43d5b70040dc085b4a68506dfc9207cbfc554c7c84ed",
      "transactionType": "CREATE",
      "contractName": "LendingProtocol",
      "contractAddress": "0x1ffe05ace98e3a2175d647fbe100062bb190e285",
      "function": null,
      "arguments": [
        "0xDd06e97090469a67B14fDC1DEdea7Af6b3F06ED3"
      ],
      "transaction": {
        "from": "0x823ef872d97f3cffd1e3d491c9560eb0d3886d56",
        "gas": "0x80548",
        "value": "0x0",
        "input": "0x608060405234801561000f575f80fd5b5060405161067438038061067483398101604081905261002e91610053565b600280546001600160a01b0319166001600160a01b0392909216919091179055610080565b5f60208284031215610063575f80fd5b81516001600160a01b0381168114610079575f80fd5b9392505050565b6105e78061008d5f395ff3fe608060405234801561000f575f80fd5b50600436106100cf575f3560e01c8063a8a087951161007d578063b9f4ff5511610058578063b9f4ff551461021e578063bad4a01f14610260578063f69f1e4a14610273575f80fd5b8063a8a08795146101b8578063b2016bd4146101cb578063b6f7132f146101f6575f80fd5b8063666181a9116100ad578063666181a91461013a5780636ad9f9df1461017757806390a8ae9b146101a9575f80fd5b806309d6dda2146100d3578063142f6f18146100fe57806326c0130314610127575b5f80fd5b6100fc6100e13660046104ba565b6001600160a01b039091165f90815260016020526040902055565b005b6100fc61010c3660046104ba565b6001600160a01b039091165f90815260208190526040902055565b6100fc6101353660046104e2565b610292565b6100fc61014836600461051b565b6002805473ffffffffffffffffffffffffffffffffffffffff19166001600160a01b0392909216919091179055565b61019661018536600461051b565b5f6020819052908152604090205481565b6040519081526020015b60405180910390f35b610196670de0b6b3a764000081565b6100fc6101c636600461051b565b6103a3565b6002546101de906001600160a01b031681565b6040516001600160a01b0390911681526020016101a0565b61019661020436600461051b565b6001600160a01b03165f9081526001602052604090205490565b61025061022c36600461051b565b6001600160a01b03165f90815260208190526040902054670de0b6b3a76400001190565b60405190151581526020016101a0565b6100fc61026e36600461053b565b610400565b61019661028136600461051b565b60016020525f908152604090205481565b6001600160a01b0383165f908152600160205260409020548111156102fd5760405162461bcd60e51b815260206004820152601760248201527f496e73756666696369656e7420636f6c6c61746572616c000000000000000000604482015260640160405180910390fd5b60025460405163a9059cbb60e01b81526001600160a01b038481166004830152602482018490529091169063a9059cbb906044016020604051808303815f875af115801561034d573d5f803e3d5ffd5b505050506040513d601f19601f820116820180604052508101906103719190610552565b506001600160a01b0383165f9081526001602052604081208054839290610399908490610585565b9091555050505050565b60025460405163a8a0879560e01b81526001600160a01b0383811660048301529091169063a8a08795906024015f604051808303815f87803b1580156103e7575f80fd5b505af11580156103f9573d5f803e3d5ffd5b5050505050565b6002546040516323b872dd60e01b8152336004820152306024820152604481018390526001600160a01b03909116906323b872dd906064016020604051808303815f875af1158015610454573d5f803e3d5ffd5b505050506040513d601f19601f820116820180604052508101906104789190610552565b50335f908152600160205260408120805483929061049790849061059e565b909155505050565b80356001600160a01b03811681146104b5575f80fd5b919050565b5f80604083850312156104cb575f80fd5b6104d48361049f565b946020939093013593505050565b5f805f606084860312156104f4575f80fd5b6104fd8461049f565b925061050b6020850161049f565b9150604084013590509250925092565b5f6020828403121561052b575f80fd5b6105348261049f565b9392505050565b5f6020828403121561054b575f80fd5b5035919050565b5f60208284031215610562575f80fd5b81518015158114610534575f80fd5b634e487b7160e01b5f52601160045260245ffd5b8181038181111561059857610598610571565b92915050565b808201808211156105985761059861057156fea264697066735822122075f26b973449c00d37839424580df4b574233cb4e96a73d464862e1d5a520f4f64736f6c63430008140033000000000000000000000000dd06e97090469a67b14fdc1dedea7af6b3f06ed3",
        "nonce": "0x1e",
        "chainId": "0xbf02"
      },
      "additionalContracts": [],
      "isFixedGasLimit": false
    },
    {
      "hash": "0xace8cc976807a3310787ecc27557de4daa15623859d6769244e661e1aaab86ef",
      "transactionType": "CALL",
      "contractName": "MockWBTC",
      "contractAddress": "0xe28c059f74e0044c01bd06e9b0a2642d5d1717e6",
      "function": "mint(address,uint256)",
      "arguments": [
        "0x00000000000000000000000000000000000A11cE",
        "100000000000000000000"
      ],
      "transaction": {
        "from": "0x823ef872d97f3cffd1e3d491c9560eb0d3886d56",
        "to": "0xe28c059f74e0044c01bd06e9b0a2642d5d1717e6",
        "gas": "0x113d6",
        "value": "0x0",
        "input": "0x40c10f1900000000000000000000000000000000000000000000000000000000000a11ce0000000000000000000000000000000000000000000000056bc75e2d63100000",
        "nonce": "0x1f",
        "chainId": "0xbf02"
      },
      "additionalContracts": [],
      "isFixedGasLimit": false
    },
    {
      "hash": "0xf6d6d352e4e6248980a77b1b4838ae936f936e825606b4bd4b825c1cebaf00ad",
      "transactionType": "CALL",
      "contractName": "MockWBTC",
      "contractAddress": "0xe28c059f74e0044c01bd06e9b0a2642d5d1717e6",
      "function": "mint(address,uint256)",
      "arguments": [
        "0x0000000000000000000000000000000000000B0b",
        "100000000000000000000"
      ],
      "transaction": {
        "from": "0x823ef872d97f3cffd1e3d491c9560eb0d3886d56",
        "to": "0xe28c059f74e0044c01bd06e9b0a2642d5d1717e6",
        "gas": "0x113c5",
        "value": "0x0",
        "input": "0x40c10f190000000000000000000000000000000000000000000000000000000000000b0b0000000000000000000000000000000000000000000000056bc75e2d63100000",
        "nonce": "0x20",
        "chainId": "0xbf02"
      },
      "additionalContracts": [],
      "isFixedGasLimit": false
    },
    {
      "hash": "0x67e97ed452501ff922c5e63a260175f2ec942a7f67e6ddbb192197758968482a",
      "transactionType": "CALL",
      "contractName": "LendingProtocol",
      "contractAddress": "0x1ffe05ace98e3a2175d647fbe100062bb190e285",
      "function": "setHealthFactor(address,uint256)",
      "arguments": [
        "0x00000000000000000000000000000000000A11cE",
        "800000000000000000"
      ],
      "transaction": {
        "from": "0x823ef872d97f3cffd1e3d491c9560eb0d3886d56",
        "to": "0x1ffe05ace98e3a2175d647fbe100062bb190e285",
        "gas": "0xfb3d",
        "value": "0x0",
        "input": "0x142f6f1800000000000000000000000000000000000000000000000000000000000a11ce0000000000000000000000000000000000000000000000000b1a2bc2ec500000",
        "nonce": "0x21",
        "chainId": "0xbf02"
      },
      "additionalContracts": [],
      "isFixedGasLimit": false
    },
    {
      "hash": "0xed977b5dd725b4ccfce56978925aaafe16e3658b3189b5877baa005e589e917f",
      "transactionType": "CALL",
      "contractName": "LendingProtocol",
      "contractAddress": "0x1ffe05ace98e3a2175d647fbe100062bb190e285",
      "function": "setHealthFactor(address,uint256)",
      "arguments": [
        "0x0000000000000000000000000000000000000B0b",
        "900000000000000000"
      ],
      "transaction": {
        "from": "0x823ef872d97f3cffd1e3d491c9560eb0d3886d56",
        "to": "0x1ffe05ace98e3a2175d647fbe100062bb190e285",
        "gas": "0xed36",
        "value": "0x0",
        "input": "0x142f6f180000000000000000000000000000000000000000000000000000000000000b0b0000000000000000000000000000000000000000000000000c7d713b49da0000",
        "nonce": "0x22",
        "chainId": "0xbf02"
      },
      "additionalContracts": [],
      "isFixedGasLimit": false
    },
    {
      "hash": "0x2fbabe7c653c99bf765d78bd2b7d83fba9bce70c805792493ef08aeddb728db9",
      "transactionType": "CALL",
      "contractName": "LendingProtocol",
      "contractAddress": "0x1ffe05ace98e3a2175d647fbe100062bb190e285",
      "function": "initiateLiquidation(address)",
      "arguments": [
        "0x00000000000000000000000000000000000A11cE"
      ],
      "transaction": {
        "from": "0x823ef872d97f3cffd1e3d491c9560eb0d3886d56",
        "to": "0x1ffe05ace98e3a2175d647fbe100062bb190e285",
        "gas": "0x1baec",
        "value": "0x0",
        "input": "0xa8a0879500000000000000000000000000000000000000000000000000000000000a11ce",
        "nonce": "0x23",
        "chainId": "0xbf02"
      },
      "additionalContracts": [],
      "isFixedGasLimit": false
    },
    {
      "hash": "0xebe099243a9ac0e3e2afc50570277478bca700cdf15b587eb604199d9bd2c1ee",
      "transactionType": "CALL",
      "contractName": "LendingProtocol",
      "contractAddress": "0x1ffe05ace98e3a2175d647fbe100062bb190e285",
      "function": "initiateLiquidation(address)",
      "arguments": [
        "0x0000000000000000000000000000000000000B0b"
      ],
      "transaction": {
        "from": "0x823ef872d97f3cffd1e3d491c9560eb0d3886d56",
        "to": "0x1ffe05ace98e3a2175d647fbe100062bb190e285",
        "gas": "0x1badd",
        "value": "0x0",
        "input": "0xa8a087950000000000000000000000000000000000000000000000000000000000000b0b",
        "nonce": "0x24",
        "chainId": "0xbf02"
      },
      "additionalContracts": [],
      "isFixedGasLimit": false
    }
  ],
  "receipts": [
    {
      "status": "0x1",
      "cumulativeGasUsed": "0x97583",
      "logs": [
        {
          "address": "0xe28c059f74e0044c01bd06e9b0a2642d5d1717e6",
          "topics": [
            "0xddf252ad1be2c89b69c2b068fc378daa952ba7f163c4a11628f55a4df523b3ef",
            "0x0000000000000000000000000000000000000000000000000000000000000000",
            "0x000000000000000000000000823ef872d97f3cffd1e3d491c9560eb0d3886d56"
          ],
          "data": "0x00000000000000000000000000000000000000000000003635c9adc5dea00000",
          "blockHash": "0xccd6323f89f61ddda5cc146677a6c6ab9ca09276da25ff42d042f0b093e95e67",
          "blockNumber": "0xb37edc",
          "blockTimestamp": "0x69226b18",
          "transactionHash": "0x551bf6cde3e82acc6dafacf33d9f17e33eb9379095856c39828246d9eab16db5",
          "transactionIndex": "0x1",
          "logIndex": "0x0",
          "removed": false
        }
      ],
      "logsBloom": "0x00000020000000000000000000000000000000000000020000000000000000000000000000000000000000000000000000000000000000000000000000000000000000000000000000000008000000000000000000000000000000000000000000000000020000000000000000000801000000000000000000000010000000000000000000000000000000000000000000000000000000000000000000000000000000000000000000000000000000000000000000000000000000000000000000000002000020000000000000800000000000000000000000000000000020000000000000000000000000000000000000000000000000000000000000000080",
      "type": "0x2",
      "transactionHash": "0x551bf6cde3e82acc6dafacf33d9f17e33eb9379095856c39828246d9eab16db5",
      "transactionIndex": "0x1",
      "blockHash": "0xccd6323f89f61ddda5cc146677a6c6ab9ca09276da25ff42d042f0b093e95e67",
      "blockNumber": "0xb37edc",
      "gasUsed": "0x8a294",
      "effectiveGasPrice": "0xff",
      "from": "0x823ef872d97f3cffd1e3d491c9560eb0d3886d56",
      "to": null,
      "contractAddress": "0xe28c059f74e0044c01bd06e9b0a2642d5d1717e6",
      "l1BaseFeeScalar": "0x558",
      "l1BlobBaseFee": "0x1",
      "l1BlobBaseFeeScalar": "0xc5fc5",
      "l1Fee": "0x6b7",
      "l1GasPrice": "0xa",
      "l1GasUsed": "0x685b",
      "operatorFeeConstant": "0x568516040",
      "operatorFeeScalar": "0xfa56ea00"
    },
    {
      "status": "0x1",
      "cumulativeGasUsed": "0xfa012",
      "logs": [],
      "logsBloom": "0x00000000000000000000000000000000000000000000000000000000000000000000000000000000000000000000000000000000000000000000000000000000000000000000000000000000000000000000000000000000000000000000000000000000000000000000000000000000000000000000000000000000000000000000000000000000000000000000000000000000000000000000000000000000000000000000000000000000000000000000000000000000000000000000000000000000000000000000000000000000000000000000000000000000000000000000000000000000000000000000000000000000000000000000000000000000",
      "type": "0x2",
      "transactionHash": "0xf89b90e70ee0efa13125bbce58d9fa762eef4407f1376fca154201e6fb25b953",
      "transactionIndex": "0x2",
      "blockHash": "0xccd6323f89f61ddda5cc146677a6c6ab9ca09276da25ff42d042f0b093e95e67",
      "blockNumber": "0xb37edc",
      "gasUsed": "0x62a8f",
      "effectiveGasPrice": "0xff",
      "from": "0x823ef872d97f3cffd1e3d491c9560eb0d3886d56",
      "to": null,
      "contractAddress": "0x6fa1e07ee11171753828d79cd63d5bfddb6024c6",
      "l1BaseFeeScalar": "0x558",
      "l1BlobBaseFee": "0x1",
      "l1BlobBaseFeeScalar": "0xc5fc5",
      "l1Fee": "0x418",
      "l1GasPrice": "0xa",
      "l1GasUsed": "0x3fa1",
      "operatorFeeConstant": "0x568516040",
      "operatorFeeScalar": "0xfa56ea00"
    },
    {
      "status": "0x1",
      "cumulativeGasUsed": "0x160133",
      "logs": [],
      "logsBloom": "0x00000000000000000000000000000000000000000000000000000000000000000000000000000000000000000000000000000000000000000000000000000000000000000000000000000000000000000000000000000000000000000000000000000000000000000000000000000000000000000000000000000000000000000000000000000000000000000000000000000000000000000000000000000000000000000000000000000000000000000000000000000000000000000000000000000000000000000000000000000000000000000000000000000000000000000000000000000000000000000000000000000000000000000000000000000000",
      "type": "0x2",
      "transactionHash": "0x4e3848d11a5e1527b47d765484792b9048559682ef95b3ea15216a9fbb1c0d24",
      "transactionIndex": "0x1",
      "blockHash": "0x7c03ef6112f5e3c64d00477d953ff2298de5e93d1d46fbbf4a86ec57c43d417b",
      "blockNumber": "0xb37edf",
      "gasUsed": "0x154418",
      "effectiveGasPrice": "0xff",
      "from": "0x823ef872d97f3cffd1e3d491c9560eb0d3886d56",
      "to": null,
      "contractAddress": "0xdd06e97090469a67b14fdc1dedea7af6b3f06ed3",
      "l1BaseFeeScalar": "0x558",
      "l1BlobBaseFee": "0x1",
      "l1BlobBaseFeeScalar": "0xc5fc5",
      "l1Fee": "0xec0",
      "l1GasPrice": "0xa",
      "l1GasUsed": "0xe534",
      "operatorFeeConstant": "0x568516040",
      "operatorFeeScalar": "0xfa56ea00"
    },
    {
      "status": "0x1",
      "cumulativeGasUsed": "0x1c2ca6",
      "logs": [],
      "logsBloom": "0x00000000000000000000000000000000000000000000000000000000000000000000000000000000000000000000000000000000000000000000000000000000000000000000000000000000000000000000000000000000000000000000000000000000000000000000000000000000000000000000000000000000000000000000000000000000000000000000000000000000000000000000000000000000000000000000000000000000000000000000000000000000000000000000000000000000000000000000000000000000000000000000000000000000000000000000000000000000000000000000000000000000000000000000000000000000",
      "type": "0x2",
      "transactionHash": "0xc94e4011b4c27eefe43f43d5b70040dc085b4a68506dfc9207cbfc554c7c84ed",
      "transactionIndex": "0x2",
      "blockHash": "0x7c03ef6112f5e3c64d00477d953ff2298de5e93d1d46fbbf4a86ec57c43d417b",
      "blockNumber": "0xb37edf",
      "gasUsed": "0x62b73",
      "effectiveGasPrice": "0xff",
      "from": "0x823ef872d97f3cffd1e3d491c9560eb0d3886d56",
      "to": null,
      "contractAddress": "0x1ffe05ace98e3a2175d647fbe100062bb190e285",
      "l1BaseFeeScalar": "0x558",
      "l1BlobBaseFee": "0x1",
      "l1BlobBaseFeeScalar": "0xc5fc5",
      "l1Fee": "0x427",
      "l1GasPrice": "0xa",
      "l1GasUsed": "0x4092",
      "operatorFeeConstant": "0x568516040",
      "operatorFeeScalar": "0xfa56ea00"
    },
    {
      "status": "0x1",
      "cumulativeGasUsed": "0x1cf45a",
      "logs": [
        {
          "address": "0xe28c059f74e0044c01bd06e9b0a2642d5d1717e6",
          "topics": [
            "0xddf252ad1be2c89b69c2b068fc378daa952ba7f163c4a11628f55a4df523b3ef",
            "0x0000000000000000000000000000000000000000000000000000000000000000",
            "0x00000000000000000000000000000000000000000000000000000000000a11ce"
          ],
          "data": "0x0000000000000000000000000000000000000000000000056bc75e2d63100000",
          "blockHash": "0x7c03ef6112f5e3c64d00477d953ff2298de5e93d1d46fbbf4a86ec57c43d417b",
          "blockNumber": "0xb37edf",
          "blockTimestamp": "0x69226b1e",
          "transactionHash": "0xace8cc976807a3310787ecc27557de4daa15623859d6769244e661e1aaab86ef",
          "transactionIndex": "0x3",
          "logIndex": "0x0",
          "removed": false
        }
      ],
      "logsBloom": "0x00000000000000000000000000000000000000000000020000000000000000000000000000000000000000000000000000000000000000000000000000000000000000000000000000000008000000000000000000000000000000000000000000000000020000000000000000000801000000000000000000000010000000000000000000000000000000000000000000000000000000000000000000000000000000000000000000000000000000000020000000008000000000004000000000000002000020000000000000000000000000000000000000000000000020000000000000000000000000000000000000000000000000000000000000000000",
      "type": "0x2",
      "transactionHash": "0xace8cc976807a3310787ecc27557de4daa15623859d6769244e661e1aaab86ef",
      "transactionIndex": "0x3",
      "blockHash": "0x7c03ef6112f5e3c64d00477d953ff2298de5e93d1d46fbbf4a86ec57c43d417b",
      "blockNumber": "0xb37edf",
      "gasUsed": "0xc7b4",
      "effectiveGasPrice": "0xff",
      "from": "0x823ef872d97f3cffd1e3d491c9560eb0d3886d56",
      "to": "0xe28c059f74e0044c01bd06e9b0a2642d5d1717e6",
      "contractAddress": null,
      "l1BaseFeeScalar": "0x558",
      "l1BlobBaseFee": "0x1",
      "l1BlobBaseFeeScalar": "0xc5fc5",
      "l1Fee": "0x66",
      "l1GasPrice": "0xa",
      "l1GasUsed": "0x640",
      "operatorFeeConstant": "0x568516040",
      "operatorFeeScalar": "0xfa56ea00"
    },
    {
      "status": "0x1",
      "cumulativeGasUsed": "0x1dbc02",
      "logs": [
        {
          "address": "0xe28c059f74e0044c01bd06e9b0a2642d5d1717e6",
          "topics": [
            "0xddf252ad1be2c89b69c2b068fc378daa952ba7f163c4a11628f55a4df523b3ef",
            "0x0000000000000000000000000000000000000000000000000000000000000000",
            "0x0000000000000000000000000000000000000000000000000000000000000b0b"
          ],
          "data": "0x0000000000000000000000000000000000000000000000056bc75e2d63100000",
          "blockHash": "0x7c03ef6112f5e3c64d00477d953ff2298de5e93d1d46fbbf4a86ec57c43d417b",
          "blockNumber": "0xb37edf",
          "blockTimestamp": "0x69226b1e",
          "transactionHash": "0xf6d6d352e4e6248980a77b1b4838ae936f936e825606b4bd4b825c1cebaf00ad",
          "transactionIndex": "0x4",
          "logIndex": "0x1",
          "removed": false
        }
      ],
      "logsBloom": "0x00000000000000000000000000000000000000000000020000000000000000000000000000000000000000000000000000000000000000000000000000200000000000000000000000000008000000000000000000000000000000000000000000000000020000000000000000000801000000000000000000000010000000000000000000000000000000000000000000000000000000000000000000000000000000000000000000000000000000000000000000000000000000000000000000010002000020000000000000000000000000000000000000000000000020004000000000000000000000000000000000000000000000000000000000000000",
      "type": "0x2",
      "transactionHash": "0xf6d6d352e4e6248980a77b1b4838ae936f936e825606b4bd4b825c1cebaf00ad",
      "transactionIndex": "0x4",
      "blockHash": "0x7c03ef6112f5e3c64d00477d953ff2298de5e93d1d46fbbf4a86ec57c43d417b",
      "blockNumber": "0xb37edf",
      "gasUsed": "0xc7a8",
      "effectiveGasPrice": "0xff",
      "from": "0x823ef872d97f3cffd1e3d491c9560eb0d3886d56",
      "to": "0xe28c059f74e0044c01bd06e9b0a2642d5d1717e6",
      "contractAddress": null,
      "l1BaseFeeScalar": "0x558",
      "l1BlobBaseFee": "0x1",
      "l1BlobBaseFeeScalar": "0xc5fc5",
      "l1Fee": "0x66",
      "l1GasPrice": "0xa",
      "l1GasUsed": "0x640",
      "operatorFeeConstant": "0x568516040",
      "operatorFeeScalar": "0xfa56ea00"
    },
    {
      "status": "0x1",
      "cumulativeGasUsed": "0x1e67cc",
      "logs": [],
      "logsBloom": "0x00000000000000000000000000000000000000000000000000000000000000000000000000000000000000000000000000000000000000000000000000000000000000000000000000000000000000000000000000000000000000000000000000000000000000000000000000000000000000000000000000000000000000000000000000000000000000000000000000000000000000000000000000000000000000000000000000000000000000000000000000000000000000000000000000000000000000000000000000000000000000000000000000000000000000000000000000000000000000000000000000000000000000000000000000000000",
      "type": "0x2",
      "transactionHash": "0x67e97ed452501ff922c5e63a260175f2ec942a7f67e6ddbb192197758968482a",
      "transactionIndex": "0x5",
      "blockHash": "0x7c03ef6112f5e3c64d00477d953ff2298de5e93d1d46fbbf4a86ec57c43d417b",
      "blockNumber": "0xb37edf",
      "gasUsed": "0xabca",
      "effectiveGasPrice": "0xff",
      "from": "0x823ef872d97f3cffd1e3d491c9560eb0d3886d56",
      "to": "0x1ffe05ace98e3a2175d647fbe100062bb190e285",
      "contractAddress": null,
      "l1BaseFeeScalar": "0x558",
      "l1BlobBaseFee": "0x1",
      "l1BlobBaseFeeScalar": "0xc5fc5",
      "l1Fee": "0x66",
      "l1GasPrice": "0xa",
      "l1GasUsed": "0x640",
      "operatorFeeConstant": "0x568516040",
      "operatorFeeScalar": "0xfa56ea00"
    },
    {
      "status": "0x1",
      "cumulativeGasUsed": "0x1f138a",
      "logs": [],
      "logsBloom": "0x00000000000000000000000000000000000000000000000000000000000000000000000000000000000000000000000000000000000000000000000000000000000000000000000000000000000000000000000000000000000000000000000000000000000000000000000000000000000000000000000000000000000000000000000000000000000000000000000000000000000000000000000000000000000000000000000000000000000000000000000000000000000000000000000000000000000000000000000000000000000000000000000000000000000000000000000000000000000000000000000000000000000000000000000000000000",
      "type": "0x2",
      "transactionHash": "0xed977b5dd725b4ccfce56978925aaafe16e3658b3189b5877baa005e589e917f",
      "transactionIndex": "0x6",
      "blockHash": "0x7c03ef6112f5e3c64d00477d953ff2298de5e93d1d46fbbf4a86ec57c43d417b",
      "blockNumber": "0xb37edf",
      "gasUsed": "0xabbe",
      "effectiveGasPrice": "0xff",
      "from": "0x823ef872d97f3cffd1e3d491c9560eb0d3886d56",
      "to": "0x1ffe05ace98e3a2175d647fbe100062bb190e285",
      "contractAddress": null,
      "l1BaseFeeScalar": "0x558",
      "l1BlobBaseFee": "0x1",
      "l1BlobBaseFeeScalar": "0xc5fc5",
      "l1Fee": "0x66",
      "l1GasPrice": "0xa",
      "l1GasUsed": "0x640",
      "operatorFeeConstant": "0x568516040",
      "operatorFeeScalar": "0xfa56ea00"
    },
    {
      "status": "0x1",
      "cumulativeGasUsed": "0x205436",
      "logs": [
        {
          "address": "0xdd06e97090469a67b14fdc1dedea7af6b3f06ed3",
          "topics": [
            "0x805cd298070afacb59b0ad84de28e6bf29b424f566c3ed0f61944a0378b947bf",
            "0x00000000000000000000000000000000000000000000000000000000000a11ce"
          ],
          "data": "0x0000000000000000000000000000000000000000000000000000000000b37eee0000000000000000000000000000000000000000000000000000000000b37efd0000000000000000000000000000000000000000000000000000000000000000",
          "blockHash": "0x7c03ef6112f5e3c64d00477d953ff2298de5e93d1d46fbbf4a86ec57c43d417b",
          "blockNumber": "0xb37edf",
          "blockTimestamp": "0x69226b1e",
          "transactionHash": "0x2fbabe7c653c99bf765d78bd2b7d83fba9bce70c805792493ef08aeddb728db9",
          "transactionIndex": "0x7",
          "logIndex": "0x2",
          "removed": false
        }
      ],
      "logsBloom": "0x00000000000000000000000000000000000000000000000000000000100000000000001000000000002000400000000000000000000000000000000000000000004000000000000000000000000000010000000000000000000000000000000000000000000000000000000000000000000000000000000000000000000000000000000000000000000000000000000000000000000000000000000000000000000000000000000000000000000000000020000000008000000000004000000000000000000000000000000000000000000000000000000000000000000000000000000000000000000000000000000000000000000000000000000000000000",
      "type": "0x2",
      "transactionHash": "0x2fbabe7c653c99bf765d78bd2b7d83fba9bce70c805792493ef08aeddb728db9",
      "transactionIndex": "0x7",
      "blockHash": "0x7c03ef6112f5e3c64d00477d953ff2298de5e93d1d46fbbf4a86ec57c43d417b",
      "blockNumber": "0xb37edf",
      "gasUsed": "0x140ac",
      "effectiveGasPrice": "0xff",
      "from": "0x823ef872d97f3cffd1e3d491c9560eb0d3886d56",
      "to": "0x1ffe05ace98e3a2175d647fbe100062bb190e285",
      "contractAddress": null,
      "l1BaseFeeScalar": "0x558",
      "l1BlobBaseFee": "0x1",
      "l1BlobBaseFeeScalar": "0xc5fc5",
      "l1Fee": "0x66",
      "l1GasPrice": "0xa",
      "l1GasUsed": "0x640",
      "operatorFeeConstant": "0x568516040",
      "operatorFeeScalar": "0xfa56ea00"
    },
    {
      "status": "0x1",
      "cumulativeGasUsed": "0x2194d6",
      "logs": [
        {
          "address": "0xdd06e97090469a67b14fdc1dedea7af6b3f06ed3",
          "topics": [
            "0x805cd298070afacb59b0ad84de28e6bf29b424f566c3ed0f61944a0378b947bf",
            "0x0000000000000000000000000000000000000000000000000000000000000b0b"
          ],
          "data": "0x0000000000000000000000000000000000000000000000000000000000b37eee0000000000000000000000000000000000000000000000000000000000b37efd0000000000000000000000000000000000000000000000000000000000000000",
          "blockHash": "0x7c03ef6112f5e3c64d00477d953ff2298de5e93d1d46fbbf4a86ec57c43d417b",
          "blockNumber": "0xb37edf",
          "blockTimestamp": "0x69226b1e",
          "transactionHash": "0xebe099243a9ac0e3e2afc50570277478bca700cdf15b587eb604199d9bd2c1ee",
          "transactionIndex": "0x8",
          "logIndex": "0x3",
          "removed": false
        }
      ],
      "logsBloom": "0x00000000000000000000000000000000000000000000000000000000100000000000001000000000002000400000000000000000000000000000000000200000004000000000000000000000000000010000000000000000000000000000000000000000000000000000000000000000000000000000000000000000000000000000000000000000000000000000000000000000000000000000000000000000000000000000000000000000000000000000000000000000000000000000000000010000000000000000000000000000000000000000000000000000000000004000000000000000000000000000000000000000000000000000000000000000",
      "type": "0x2",
      "transactionHash": "0xebe099243a9ac0e3e2afc50570277478bca700cdf15b587eb604199d9bd2c1ee",
      "transactionIndex": "0x8",
      "blockHash": "0x7c03ef6112f5e3c64d00477d953ff2298de5e93d1d46fbbf4a86ec57c43d417b",
      "blockNumber": "0xb37edf",
      "gasUsed": "0x140a0",
      "effectiveGasPrice": "0xff",
      "from": "0x823ef872d97f3cffd1e3d491c9560eb0d3886d56",
      "to": "0x1ffe05ace98e3a2175d647fbe100062bb190e285",
      "contractAddress": null,
      "l1BaseFeeScalar": "0x558",
      "l1BlobBaseFee": "0x1",
      "l1BlobBaseFeeScalar": "0xc5fc5",
      "l1Fee": "0x66",
      "l1GasPrice": "0xa",
      "l1GasUsed": "0x640",
      "operatorFeeConstant": "0x568516040",
      "operatorFeeScalar": "0xfa56ea00"
    }
  ],
  "libraries": [],
  "pending": [],
  "returns": {},
  "timestamp": 1763863326949,
  "chain": 48898,
  "commit": "2ade28b"
}