{
  "transactions": [
    {
      "hash": "0xebd383f4aa29eb0a555781576eafda3ebbf470e5597e5cf7ecd143ab158cf38e",
      "transactionType": "CREATE",
      "contractName": "MockWBTC",
      "contractAddress": "0x7b3edd4a3b0ab650b12482c9a0502373479a9715",
      "function": null,
      "arguments": null,
      "transaction": {
        "from": "0x823ef872d97f3cffd1e3d491c9560eb0d3886d56",
        "gas": "0xb39c0",
        "value": "0x0",
        "input": "0x608060405234801562000010575f80fd5b506040518060400160405280600f81526020016e2bb930b83832b2102134ba31b7b4b760891b815250604051806040016040528060048152602001635742544360e01b8152508160039081620000679190620002a9565b506004620000768282620002a9565b5050506200009433683635c9adc5dea000006200009a60201b60201c565b62000397565b6001600160a01b038216620000c95760405163ec442f0560e01b81525f60048201526024015b60405180910390fd5b620000d65f8383620000da565b5050565b6001600160a01b03831662000108578060025f828254620000fc919062000371565b909155506200017a9050565b6001600160a01b0383165f90815260208190526040902054818110156200015c5760405163391434e360e21b81526001600160a01b03851660048201526024810182905260448101839052606401620000c0565b6001600160a01b0384165f9081526020819052604090209082900390555b6001600160a01b0382166200019857600280548290039055620001b6565b6001600160a01b0382165f9081526020819052604090208054820190555b816001600160a01b0316836001600160a01b03167fddf252ad1be2c89b69c2b068fc378daa952ba7f163c4a11628f55a4df523b3ef83604051620001fc91815260200190565b60405180910390a3505050565b634e487b7160e01b5f52604160045260245ffd5b600181811c908216806200023257607f821691505b6020821081036200025157634e487b7160e01b5f52602260045260245ffd5b50919050565b601f821115620002a4575f81815260208120601f850160051c810160208610156200027f5750805b601f850160051c820191505b81811015620002a0578281556001016200028b565b5050505b505050565b81516001600160401b03811115620002c557620002c562000209565b620002dd81620002d684546200021d565b8462000257565b602080601f83116001811462000313575f8415620002fb5750858301515b5f19600386901b1c1916600185901b178555620002a0565b5f85815260208120601f198616915b82811015620003435788860151825594840194600190910190840162000322565b50858210156200036157878501515f19600388901b60f8161c191681555b5050505050600190811b01905550565b808201808211156200039157634e487b7160e01b5f52601160045260245ffd5b92915050565b61075b80620003a55f395ff3fe608060405234801561000f575f80fd5b506004361061009b575f3560e01c806340c10f191161006357806340c10f191461011457806370a082311461012957806395d89b4114610151578063a9059cbb14610159578063dd62ed3e1461016c575f80fd5b806306fdde031461009f578063095ea7b3146100bd57806318160ddd146100e057806323b872dd146100f2578063313ce56714610105575b5f80fd5b6100a76101a4565b6040516100b491906105b6565b60405180910390f35b6100d06100cb36600461061c565b610234565b60405190151581526020016100b4565b6002545b6040519081526020016100b4565b6100d0610100366004610644565b61024d565b604051601281526020016100b4565b61012761012236600461061c565b610270565b005b6100e461013736600461067d565b6001600160a01b03165f9081526020819052604090205490565b6100a761027e565b6100d061016736600461061c565b61028d565b6100e461017a36600461069d565b6001600160a01b039182165f90815260016020908152604080832093909416825291909152205490565b6060600380546101b3906106ce565b80601f01602080910402602001604051908101604052809291908181526020018280546101df906106ce565b801561022a5780601f106102015761010080835404028352916020019161022a565b820191905f5260205f20905b81548152906001019060200180831161020d57829003601f168201915b5050505050905090565b5f3361024181858561029a565b60019150505b92915050565b5f3361025a8582856102ac565b61026585858561032d565b506001949350505050565b61027a828261038a565b5050565b6060600480546101b3906106ce565b5f3361024181858561032d565b6102a783838360016103be565b505050565b6001600160a01b038381165f908152600160209081526040808320938616835292905220545f19811015610327578181101561031957604051637dc7a0d960e11b81526001600160a01b038416600482015260248101829052604481018390526064015b60405180910390fd5b61032784848484035f6103be565b50505050565b6001600160a01b03831661035657604051634b637e8f60e11b81525f6004820152602401610310565b6001600160a01b03821661037f5760405163ec442f0560e01b81525f6004820152602401610310565b6102a7838383610490565b6001600160a01b0382166103b35760405163ec442f0560e01b81525f6004820152602401610310565b61027a5f8383610490565b6001600160a01b0384166103e75760405163e602df0560e01b81525f6004820152602401610310565b6001600160a01b03831661041057604051634a1406b160e11b81525f6004820152602401610310565b6001600160a01b038085165f908152600160209081526040808320938716835292905220829055801561032757826001600160a01b0316846001600160a01b03167f8c5be1e5ebec7d5bd14f71427d1e84f3dd0314c0f7b2291e5b200ac8c7c3b9258460405161048291815260200190565b60405180910390a350505050565b6001600160a01b0383166104ba578060025f8282546104af9190610706565b9091555061052a9050565b6001600160a01b0383165f908152602081905260409020548181101561050c5760405163391434e360e21b81526001600160a01b03851660048201526024810182905260448101839052606401610310565b6001600160a01b0384165f9081526020819052604090209082900390555b6001600160a01b03821661054657600280548290039055610564565b6001600160a01b0382165f9081526020819052604090208054820190555b816001600160a01b0316836001600160a01b03167fddf252ad1be2c89b69c2b068fc378daa952ba7f163c4a11628f55a4df523b3ef836040516105a991815260200190565b60405180910390a3505050565b5f6020808352835180828501525f5b818110156105e1578581018301518582016040015282016105c5565b505f604082860101526040601f19601f8301168501019250505092915050565b80356001600160a01b0381168114610617575f80fd5b919050565b5f806040838503121561062d575f80fd5b61063683610601565b946020939093013593505050565b5f805f60608486031215610656575f80fd5b61065f84610601565b925061066d60208501610601565b9150604084013590509250925092565b5f6020828403121561068d575f80fd5b61069682610601565b9392505050565b5f80604083850312156106ae575f80fd5b6106b783610601565b91506106c560208401610601565b90509250929050565b600181811c908216806106e257607f821691505b60208210810361070057634e487b7160e01b5f52602260045260245ffd5b50919050565b8082018082111561024757634e487b7160e01b5f52601160045260245ffdfea26469706673582212208695fd8d2cee44726068759639283ba59139ec01d8bc15d4cfcd8b60e429d6bc64736f6c63430008140033",
        "nonce": "0x11",
        "chainId": "0xbf02"
      },
      "additionalContracts": [],
      "isFixedGasLimit": false
    },
    {
      "hash": "0x67cb72084cb008db2c28d7c9ab8288c4bc658fc853fa53d562931e61e4e7366e",
      "transactionType": "CREATE",
      "contractName": "LendingProtocol",
      "contractAddress": "0x0bc0d4533d9ecffd21eed49cbdfa677a384fa96d",
      "function": null,
      "arguments": [
        "0x0000000000000000000000000000000000000001"
      ],
      "transaction": {
        "from": "0x823ef872d97f3cffd1e3d491c9560eb0d3886d56",
        "gas": "0x6e5cf",
        "value": "0x0",
        "input": "0x60a060405234801561000f575f80fd5b506040516105e73803806105e783398101604081905261002e9161003f565b6001600160a01b031660805261006c565b5f6020828403121561004f575f80fd5b81516001600160a01b0381168114610065575f80fd5b9392505050565b60805161054e6100995f395f81816101790152818161027d0152818161030c0152610388015261054e5ff3fe608060405234801561000f575f80fd5b50600436106100b5575f3560e01c8063a8a087951161007d578063b9f4ff5511610058578063b9f4ff55146101db578063bad4a01f1461021d578063f69f1e4a14610230575f80fd5b8063a8a0879514610161578063b2016bd414610174578063b6f7132f146101b3575f80fd5b806309d6dda2146100b9578063142f6f18146100e457806326c013031461010d5780636ad9f9df1461012057806390a8ae9b14610152575b5f80fd5b6100e26100c736600461043c565b6001600160a01b039091165f90815260016020526040902055565b005b6100e26100f236600461043c565b6001600160a01b039091165f90815260208190526040902055565b6100e261011b366004610464565b61024f565b61013f61012e36600461049d565b5f6020819052908152604090205481565b6040519081526020015b60405180910390f35b61013f670de0b6b3a764000081565b6100e261016f36600461049d565b6102ed565b61019b7f000000000000000000000000000000000000000000000000000000000000000081565b6040516001600160a01b039091168152602001610149565b61013f6101c136600461049d565b6001600160a01b03165f9081526001602052604090205490565b61020d6101e936600461049d565b6001600160a01b03165f90815260208190526040902054670de0b6b3a76400001190565b6040519015158152602001610149565b6100e261022b3660046104bd565b610366565b61013f61023e36600461049d565b60016020525f908152604090205481565b6040516323b872dd60e01b81526001600160a01b0384811660048301528381166024830152604482018390527f000000000000000000000000000000000000000000000000000000000000000016906323b872dd906064016020604051808303815f875af11580156102c3573d5f803e3d5ffd5b505050506040513d601f19601f820116820180604052508101906102e791906104d4565b50505050565b60405163a8a0879560e01b81526001600160a01b0382811660048301527f0000000000000000000000000000000000000000000000000000000000000000169063a8a08795906024015f604051808303815f87803b15801561034d575f80fd5b505af115801561035f573d5f803e3d5ffd5b5050505050565b6040516323b872dd60e01b8152336004820152306024820152604481018290527f00000000000000000000000000000000000000000000000000000000000000006001600160a01b0316906323b872dd906064016020604051808303815f875af11580156103d6573d5f803e3d5ffd5b505050506040513d601f19601f820116820180604052508101906103fa91906104d4565b50335f90815260016020526040812080548392906104199084906104f3565b909155505050565b80356001600160a01b0381168114610437575f80fd5b919050565b5f806040838503121561044d575f80fd5b61045683610421565b946020939093013593505050565b5f805f60608486031215610476575f80fd5b61047f84610421565b925061048d60208501610421565b9150604084013590509250925092565b5f602082840312156104ad575f80fd5b6104b682610421565b9392505050565b5f602082840312156104cd575f80fd5b5035919050565b5f602082840312156104e4575f80fd5b815180151581146104b6575f80fd5b8082018082111561051257634e487b7160e01b5f52601160045260245ffd5b9291505056fea26469706673582212203b040f75ad53336a4c60c0976105eaefae4d5315ce3292dae80b8e06c70d1fcf64736f6c634300081400330000000000000000000000000000000000000000000000000000000000000001",
        "nonce": "0x12",
        "chainId": "0xbf02"
      },
      "additionalContracts": [],
      "isFixedGasLimit": false
    },
    {
      "hash": "0x947d8e46ca712679e62b901425cac0e9a1bfc2aad1cc1ab8deabadb10cf38997",
      "transactionType": "CREATE",
      "contractName": "CircuitBreakerToken",
      "contractAddress": "0x43ea72b2c65b1e8a44150b1a438751e196b5c6f5",
      "function": null,
      "arguments": [
        "Circuit Breaker Wrapped Bitcoin",
        "cWBTC",
        "0x7b3edD4a3b0aB650B12482C9a0502373479A9715",
        "5",
        "5",
        "0x0BC0d4533D9ecFFd21EEd49CbdFA677a384Fa96d"
      ],
      "transaction": {
        "from": "0x823ef872d97f3cffd1e3d491c9560eb0d3886d56",
        "gas": "0x189658",
        "value": "0x0",
        "input": "0x61010060405234801562000011575f80fd5b506040516200181038038062001810833981016040819052620000349162000154565b858560036200004483826200027b565b5060046200005382826200027b565b5050506001600160a01b0393841660805260a09290925260c0521660e05250620003439050565b634e487b7160e01b5f52604160045260245ffd5b5f82601f8301126200009e575f80fd5b81516001600160401b0380821115620000bb57620000bb6200007a565b604051601f8301601f19908116603f01168101908282118183101715620000e657620000e66200007a565b8160405283815260209250868385880101111562000102575f80fd5b5f91505b8382101562000125578582018301518183018401529082019062000106565b5f93810190920192909252949350505050565b80516001600160a01b03811681146200014f575f80fd5b919050565b5f805f805f8060c087890312156200016a575f80fd5b86516001600160401b038082111562000181575f80fd5b6200018f8a838b016200008e565b97506020890151915080821115620001a5575f80fd5b50620001b489828a016200008e565b955050620001c56040880162000138565b93506060870151925060808701519150620001e360a0880162000138565b90509295509295509295565b600181811c908216806200020457607f821691505b6020821081036200022357634e487b7160e01b5f52602260045260245ffd5b50919050565b601f82111562000276575f81815260208120601f850160051c81016020861015620002515750805b601f850160051c820191505b8181101562000272578281556001016200025d565b5050505b505050565b81516001600160401b038111156200029757620002976200007a565b620002af81620002a88454620001ef565b8462000229565b602080601f831160018114620002e5575f8415620002cd5750858301515b5f19600386901b1c1916600185901b17855562000272565b5f85815260208120601f198616915b828110156200031557888601518255948401946001909101908401620002f4565b50858210156200033357878501515f19600388901b60f8161c191681555b5050505050600190811b01905550565b60805160a05160c05160e051611461620003af5f395f818161032f0152818161074501526108b901525f81816103c1015281816106480152610a5c01525f81816101bf0152610a2f01525f81816102990152818161052c015281816106b80152610b5601526114615ff3fe608060405234801561000f575f80fd5b5060043610610175575f3560e01c806370a08231116100dd578063a9059cbb11610088578063b7222afc11610063578063b7222afc14610392578063ce0cc613146103bc578063dd62ed3e146103e3575f80fd5b8063a9059cbb14610364578063b070772614610377578063b6b55f251461037f575f80fd5b806395d89b41116100b857806395d89b41146103225780639fc073e01461032a578063a8a0879514610351575f80fd5b806370a08231146102d357806377d5374f146102fb5780638d5c3dda1461031a575f80fd5b806323b872dd1161013d5780634e5a60de116101185780634e5a60de1461024d5780635f5c8fe9146102755780636f307dc314610294575f80fd5b806323b872dd146102165780632e1a7d4d14610229578063313ce5671461023e575f80fd5b806306fdde0314610179578063095ea7b3146101975780630baa9ed6146101ba5780630e527130146101ef57806318160ddd1461020e575b5f80fd5b61018161041b565b60405161018e919061121e565b60405180910390f35b6101aa6101a5366004611284565b6104ab565b604051901515815260200161018e565b6101e17f000000000000000000000000000000000000000000000000000000000000000081565b60405190815260200161018e565b6101e16101fd3660046112ac565b60066020525f908152604090205481565b6002546101e1565b6101aa6102243660046112c5565b6104e3565b61023c6102373660046112fe565b610506565b005b6040516012815260200161018e565b61026061025b3660046112ac565b6105d8565b6040805192835260208301919091520161018e565b6101e16102833660046112ac565b60076020525f908152604090205481565b6102bb7f000000000000000000000000000000000000000000000000000000000000000081565b6040516001600160a01b03909116815260200161018e565b6101e16102e13660046112ac565b6001600160a01b03165f9081526020819052604090205490565b6101e16103093660046112ac565b60086020525f908152604090205481565b6101e1606481565b61018161088b565b6102bb7f000000000000000000000000000000000000000000000000000000000000000081565b61023c61035f3660046112ac565b61089a565b6101aa610372366004611284565b610b1d565b6101e1600a81565b61023c61038d3660046112fe565b610b34565b6101e16103a0366004611315565b600560209081525f928352604080842090915290825290205481565b6101e17f000000000000000000000000000000000000000000000000000000000000000081565b6101e16103f1366004611315565b6001600160a01b039182165f90815260016020908152604080832093909416825291909152205490565b60606003805461042a90611346565b80601f016020809104026020016040519081016040528092919081815260200182805461045690611346565b80156104a15780601f10610478576101008083540402835291602001916104a1565b820191905f5260205f20905b81548152906001019060200180831161048457829003601f168201915b5050505050905090565b335f9081526005602090815260408083206001600160a01b038616845290915281204390556104da8383610c05565b90505b92915050565b5f336104f0858285610c12565b6104fb858585610c8e565b506001949350505050565b6105103382610cf0565b60405163a9059cbb60e01b8152336004820152602481018290527f00000000000000000000000000000000000000000000000000000000000000006001600160a01b03169063a9059cbb906044016020604051808303815f875af115801561057a573d5f803e3d5ffd5b505050506040513d601f19601f8201168201806040525081019061059e919061137e565b5060405181815233907f884edad9ce6fa2440d8a54cc123490eb96d2768479d49ff9c7366125a9424364906020015b60405180910390a250565b6001600160a01b0381165f90815260066020908152604080832054600790925282205482919081830361061157505f9485945092505050565b8143101561062557505f9485945092505050565b8043111561063957505f9485945092505050565b5f61064483436113b8565b90507f00000000000000000000000000000000000000000000000000000000000000008082610675600a60646113b8565b61067f91906113cb565b61068991906113e2565b61069490600a611401565b6040516370a0823160e01b81526001600160a01b0389811660048301529197505f917f000000000000000000000000000000000000000000000000000000000000000016906370a0823190602401602060405180830381865afa1580156106fd573d5f803e3d5ffd5b505050506040513d601f19601f820116820180604052508101906107219190611414565b60405163b6f7132f60e01b81526001600160a01b038a811660048301529192505f917f0000000000000000000000000000000000000000000000000000000000000000169063b6f7132f90602401602060405180830381865afa15801561078a573d5f803e3d5ffd5b505050506040513d601f19601f820116820180604052508101906107ae9190611414565b9050606482158015906107c057505f82115b15610841575f826107d28560646113cb565b6107dc91906113e2565b90505f606482106107ef57506032610803565b603282106107ff57506046610803565b5060645b606481101561083e575f868861081a8460646113b8565b61082491906113cb565b61082e91906113e2565b905061083a8183611401565b9350505b50505b8089111561084d578098505b6001600160a01b038a165f90815260086020526040902054606490610873908b906113cb565b61087d91906113e2565b975050505050505050915091565b60606004805461042a90611346565b60405163b9f4ff5560e01b81526001600160a01b0382811660048301527f0000000000000000000000000000000000000000000000000000000000000000169063b9f4ff5590602401602060405180830381865afa1580156108fe573d5f803e3d5ffd5b505050506040513d601f19601f82011682018060405250810190610922919061137e565b6109735760405162461bcd60e51b815260206004820152601960248201527f506f736974696f6e206e6f74206c6971756964617461626c650000000000000060448201526064015b60405180910390fd5b6001600160a01b0381165f908152600660205260409020548015610a29576001600160a01b0382165f908152600760205260409020544381106109f85760405162461bcd60e51b815260206004820152601d60248201527f4c69717569646174696f6e20616c726561647920696e69746961746564000000604482015260640161096a565b506001600160a01b0382165f9081526006602090815260408083208390556007825280832083905560089091528120555b5f610a547f000000000000000000000000000000000000000000000000000000000000000043611401565b90505f610a817f000000000000000000000000000000000000000000000000000000000000000083611401565b90505f610aa2856001600160a01b03165f9081526020819052604090205490565b6001600160a01b0386165f8181526006602090815260408083208890556007825280832087905560088252918290208490558151878152908101869052908101839052919250907f805cd298070afacb59b0ad84de28e6bf29b424f566c3ed0f61944a0378b947bf9060600160405180910390a25050505050565b5f33610b2a818585610c8e565b5060019392505050565b6040516323b872dd60e01b8152336004820152306024820152604481018290527f00000000000000000000000000000000000000000000000000000000000000006001600160a01b0316906323b872dd906064016020604051808303815f875af1158015610ba4573d5f803e3d5ffd5b505050506040513d601f19601f82011682018060405250810190610bc8919061137e565b50610bd33382610d28565b60405181815233907fe1fffcc4923d04b559f4d29a8bfc6cda04eb5b0d3c460751c2402c5c5cc9109c906020016105cd565b5f33610b2a818585610d5c565b6001600160a01b038381165f908152600160209081526040808320938616835292905220545f19811015610c885781811015610c7a57604051637dc7a0d960e11b81526001600160a01b0384166004820152602481018290526044810183905260640161096a565b610c8884848484035f610d65565b50505050565b6001600160a01b038316610cb757604051634b637e8f60e11b81525f600482015260240161096a565b6001600160a01b038216610ce05760405163ec442f0560e01b81525f600482015260240161096a565b610ceb838383610e37565b505050565b6001600160a01b038216610d1957604051634b637e8f60e11b81525f600482015260240161096a565b610d24825f83610e37565b5050565b6001600160a01b038216610d515760405163ec442f0560e01b81525f600482015260240161096a565b610d245f8383610e37565b610ceb83838360015b6001600160a01b038416610d8e5760405163e602df0560e01b81525f600482015260240161096a565b6001600160a01b038316610db757604051634a1406b160e11b81525f600482015260240161096a565b6001600160a01b038085165f9081526001602090815260408083209387168352929052208290558015610c8857826001600160a01b0316846001600160a01b03167f8c5be1e5ebec7d5bd14f71427d1e84f3dd0314c0f7b2291e5b200ac8c7c3b92584604051610e2991815260200190565b60405180910390a350505050565b6001600160a01b0383161580610e5457506001600160a01b038216155b15610e6457610ceb8383836110f8565b6001600160a01b0383163303610e7f57610ceb8383836110f8565b6001600160a01b0383165f90815260056020908152604080832033845290915290205443148015610eb557610c888484846110f8565b6001600160a01b0384165f9081526006602090815260408083205460079092528220549091829003610f4f5760405162461bcd60e51b815260206004820152602f60248201527f43697263756974427265616b65723a206d75737420696e697469617465206c6960448201527f717569646174696f6e2066697273740000000000000000000000000000000000606482015260840161096a565b81431015610faf5760405162461bcd60e51b815260206004820152602760248201527f43697263756974427265616b65723a206c69717569646174696f6e20696e206360448201526637b7b63237bbb760c91b606482015260840161096a565b80431115611044576001600160a01b0386165f908152600660209081526040808320839055600782528083208390556008825280832092909255905162461bcd60e51b81526004810191909152602a60248201527f43697263756974427265616b65723a206c69717569646174696f6e2077696e646044820152691bddc8195e1c1a5c995960b21b606482015260840161096a565b5f61104e876105d8565b915050808511156110b55760405162461bcd60e51b815260206004820152602b60248201527f43697263756974427265616b65723a2065786365656473206c6971756964617460448201526a18589b1948185b5bdd5b9d60aa1b606482015260840161096a565b6001600160a01b0387165f9081526006602090815260408083208390556007825280832083905560089091528120556110ef8787876110f8565b50505050505050565b6001600160a01b038316611122578060025f8282546111179190611401565b909155506111929050565b6001600160a01b0383165f90815260208190526040902054818110156111745760405163391434e360e21b81526001600160a01b0385166004820152602481018290526044810183905260640161096a565b6001600160a01b0384165f9081526020819052604090209082900390555b6001600160a01b0382166111ae576002805482900390556111cc565b6001600160a01b0382165f9081526020819052604090208054820190555b816001600160a01b0316836001600160a01b03167fddf252ad1be2c89b69c2b068fc378daa952ba7f163c4a11628f55a4df523b3ef8360405161121191815260200190565b60405180910390a3505050565b5f6020808352835180828501525f5b818110156112495785810183015185820160400152820161122d565b505f604082860101526040601f19601f8301168501019250505092915050565b80356001600160a01b038116811461127f575f80fd5b919050565b5f8060408385031215611295575f80fd5b61129e83611269565b946020939093013593505050565b5f602082840312156112bc575f80fd5b6104da82611269565b5f805f606084860312156112d7575f80fd5b6112e084611269565b92506112ee60208501611269565b9150604084013590509250925092565b5f6020828403121561130e575f80fd5b5035919050565b5f8060408385031215611326575f80fd5b61132f83611269565b915061133d60208401611269565b90509250929050565b600181811c9082168061135a57607f821691505b60208210810361137857634e487b7160e01b5f52602260045260245ffd5b50919050565b5f6020828403121561138e575f80fd5b8151801515811461139d575f80fd5b9392505050565b634e487b7160e01b5f52601160045260245ffd5b818103818111156104dd576104dd6113a4565b80820281158282048414176104dd576104dd6113a4565b5f826113fc57634e487b7160e01b5f52601260045260245ffd5b500490565b808201808211156104dd576104dd6113a4565b5f60208284031215611424575f80fd5b505191905056fea2646970667358221220fc58c3d93746f93a4b0a920d68905ea0eb60c771b418ea2ab179be3c69c2278e64736f6c6343000814003300000000000000000000000000000000000000000000000000000000000000c000000000000000000000000000000000000000000000000000000000000001000000000000000000000000007b3edd4a3b0ab650b12482c9a0502373479a9715000000000000000000000000000000000000000000000000000000000000000500000000000000000000000000000000000000000000000000000000000000050000000000000000000000000bc0d4533d9ecffd21eed49cbdfa677a384fa96d000000000000000000000000000000000000000000000000000000000000001f4369726375697420427265616b6572205772617070656420426974636f696e0000000000000000000000000000000000000000000000000000000000000000056357425443000000000000000000000000000000000000000000000000000000",
        "nonce": "0x13",
        "chainId": "0xbf02"
      },
      "additionalContracts": [],
      "isFixedGasLimit": false
    },
    {
      "hash": "0x7700643069e9b51b8d8fc56f8ffb9f2b52d4ed2b984988ccaf785ba25303f650",
      "transactionType": "CREATE",
      "contractName": "LendingProtocol",
      "contractAddress": "0x7fb7cc0d318897ffba25349ac71a37cd2114eb69",
      "function": null,
      "arguments": [
        "0x43eA72b2c65b1e8A44150B1A438751e196B5C6F5"
      ],
      "transaction": {
        "from": "0x823ef872d97f3cffd1e3d491c9560eb0d3886d56",
        "gas": "0x6e6f8",
        "value": "0x0",
        "input": "0x60a060405234801561000f575f80fd5b506040516105e73803806105e783398101604081905261002e9161003f565b6001600160a01b031660805261006c565b5f6020828403121561004f575f80fd5b81516001600160a01b0381168114610065575f80fd5b9392505050565b60805161054e6100995f395f81816101790152818161027d0152818161030c0152610388015261054e5ff3fe608060405234801561000f575f80fd5b50600436106100b5575f3560e01c8063a8a087951161007d578063b9f4ff5511610058578063b9f4ff55146101db578063bad4a01f1461021d578063f69f1e4a14610230575f80fd5b8063a8a0879514610161578063b2016bd414610174578063b6f7132f146101b3575f80fd5b806309d6dda2146100b9578063142f6f18146100e457806326c013031461010d5780636ad9f9df1461012057806390a8ae9b14610152575b5f80fd5b6100e26100c736600461043c565b6001600160a01b039091165f90815260016020526040902055565b005b6100e26100f236600461043c565b6001600160a01b039091165f90815260208190526040902055565b6100e261011b366004610464565b61024f565b61013f61012e36600461049d565b5f6020819052908152604090205481565b6040519081526020015b60405180910390f35b61013f670de0b6b3a764000081565b6100e261016f36600461049d565b6102ed565b61019b7f000000000000000000000000000000000000000000000000000000000000000081565b6040516001600160a01b039091168152602001610149565b61013f6101c136600461049d565b6001600160a01b03165f9081526001602052604090205490565b61020d6101e936600461049d565b6001600160a01b03165f90815260208190526040902054670de0b6b3a76400001190565b6040519015158152602001610149565b6100e261022b3660046104bd565b610366565b61013f61023e36600461049d565b60016020525f908152604090205481565b6040516323b872dd60e01b81526001600160a01b0384811660048301528381166024830152604482018390527f000000000000000000000000000000000000000000000000000000000000000016906323b872dd906064016020604051808303815f875af11580156102c3573d5f803e3d5ffd5b505050506040513d601f19601f820116820180604052508101906102e791906104d4565b50505050565b60405163a8a0879560e01b81526001600160a01b0382811660048301527f0000000000000000000000000000000000000000000000000000000000000000169063a8a08795906024015f604051808303815f87803b15801561034d575f80fd5b505af115801561035f573d5f803e3d5ffd5b5050505050565b6040516323b872dd60e01b8152336004820152306024820152604481018290527f00000000000000000000000000000000000000000000000000000000000000006001600160a01b0316906323b872dd906064016020604051808303815f875af11580156103d6573d5f803e3d5ffd5b505050506040513d601f19601f820116820180604052508101906103fa91906104d4565b50335f90815260016020526040812080548392906104199084906104f3565b909155505050565b80356001600160a01b0381168114610437575f80fd5b919050565b5f806040838503121561044d575f80fd5b61045683610421565b946020939093013593505050565b5f805f60608486031215610476575f80fd5b61047f84610421565b925061048d60208501610421565b9150604084013590509250925092565b5f602082840312156104ad575f80fd5b6104b682610421565b9392505050565b5f602082840312156104cd575f80fd5b5035919050565b5f602082840312156104e4575f80fd5b815180151581146104b6575f80fd5b8082018082111561051257634e487b7160e01b5f52601160045260245ffd5b9291505056fea26469706673582212203b040f75ad53336a4c60c0976105eaefae4d5315ce3292dae80b8e06c70d1fcf64736f6c6343000814003300000000000000000000000043ea72b2c65b1e8a44150b1a438751e196b5c6f5",
        "nonce": "0x14",
        "chainId": "0xbf02"
      },
      "additionalContracts": [],
      "isFixedGasLimit": false
    },
    {
      "hash": "0x73bb7753e5ee36616563aca22ad65fd58f1e26f3efe9e974b2a2a4ebdd67eebb",
      "transactionType": "CALL",
      "contractName": "MockWBTC",
      "contractAddress": "0x7b3edd4a3b0ab650b12482c9a0502373479a9715",
      "function": "mint(address,uint256)",
      "arguments": [
        "0x00000000000000000000000000000000000A11cE",
        "100000000000000000000"
      ],
      "transaction": {
        "from": "0x823ef872d97f3cffd1e3d491c9560eb0d3886d56",
        "to": "0x7b3edd4a3b0ab650b12482c9a0502373479a9715",
        "gas": "0x113d6",
        "value": "0x0",
        "input": "0x40c10f1900000000000000000000000000000000000000000000000000000000000a11ce0000000000000000000000000000000000000000000000056bc75e2d63100000",
        "nonce": "0x15",
        "chainId": "0xbf02"
      },
      "additionalContracts": [],
      "isFixedGasLimit": false
    },
    {
      "hash": "0x05c6d7c45c3af3d636509c87387a91ceced67b43fd6e832274602d7d58687a07",
      "transactionType": "CALL",
      "contractName": "MockWBTC",
      "contractAddress": "0x7b3edd4a3b0ab650b12482c9a0502373479a9715",
      "function": "mint(address,uint256)",
      "arguments": [
        "0x0000000000000000000000000000000000000B0b",
        "100000000000000000000"
      ],
      "transaction": {
        "from": "0x823ef872d97f3cffd1e3d491c9560eb0d3886d56",
        "to": "0x7b3edd4a3b0ab650b12482c9a0502373479a9715",
        "gas": "0x113c5",
        "value": "0x0",
        "input": "0x40c10f190000000000000000000000000000000000000000000000000000000000000b0b0000000000000000000000000000000000000000000000056bc75e2d63100000",
        "nonce": "0x16",
        "chainId": "0xbf02"
      },
      "additionalContracts": [],
      "isFixedGasLimit": false
    },
    {
      "hash": "0x281d408a3ac1aad4c13315a9099b172416264b1777f6526976ad2fc6e8dbec7f",
      "transactionType": "CALL",
      "contractName": "LendingProtocol",
      "contractAddress": "0x7fb7cc0d318897ffba25349ac71a37cd2114eb69",
      "function": "setHealthFactor(address,uint256)",
      "arguments": [
        "0x00000000000000000000000000000000000A11cE",
        "800000000000000000"
      ],
      "transaction": {
        "from": "0x823ef872d97f3cffd1e3d491c9560eb0d3886d56",
        "to": "0x7fb7cc0d318897ffba25349ac71a37cd2114eb69",
        "gas": "0xfb1b",
        "value": "0x0",
        "input": "0x142f6f1800000000000000000000000000000000000000000000000000000000000a11ce0000000000000000000000000000000000000000000000000b1a2bc2ec500000",
        "nonce": "0x17",
        "chainId": "0xbf02"
      },
      "additionalContracts": [],
      "isFixedGasLimit": false
    },
    {
      "hash": "0x9c4cc310acc94b201d5b18d11a8bffa7eca79d7bbf0c2d23669ac601514e886c",
      "transactionType": "CALL",
      "contractName": "LendingProtocol",
      "contractAddress": "0x7fb7cc0d318897ffba25349ac71a37cd2114eb69",
      "function": "setHealthFactor(address,uint256)",
      "arguments": [
        "0x0000000000000000000000000000000000000B0b",
        "900000000000000000"
      ],
      "transaction": {
        "from": "0x823ef872d97f3cffd1e3d491c9560eb0d3886d56",
        "to": "0x7fb7cc0d318897ffba25349ac71a37cd2114eb69",
        "gas": "0xed17",
        "value": "0x0",
        "input": "0x142f6f180000000000000000000000000000000000000000000000000000000000000b0b0000000000000000000000000000000000000000000000000c7d713b49da0000",
        "nonce": "0x18",
        "chainId": "0xbf02"
      },
      "additionalContracts": [],
      "isFixedGasLimit": false
    },
    {
      "hash": "0xccd41e69e6d6d271cc0c8eb1ceb77e0f261b5019903f8298b61692e6cf2c8f96",
      "transactionType": "CALL",
      "contractName": "LendingProtocol",
      "contractAddress": "0x7fb7cc0d318897ffba25349ac71a37cd2114eb69",
      "function": "initiateLiquidation(address)",
      "arguments": [
        "0x00000000000000000000000000000000000A11cE"
      ],
      "transaction": {
        "from": "0x823ef872d97f3cffd1e3d491c9560eb0d3886d56",
        "to": "0x7fb7cc0d318897ffba25349ac71a37cd2114eb69",
        "gas": "0x1d12d",
        "value": "0x0",
        "input": "0xa8a0879500000000000000000000000000000000000000000000000000000000000a11ce",
        "nonce": "0x19",
        "chainId": "0xbf02"
      },
      "additionalContracts": [],
      "isFixedGasLimit": false
    },
    {
      "hash": "0x5ecc48e5a8b480a5adfee29403fec4f095166d6c495dafed5ade492542310d11",
      "transactionType": "CALL",
      "contractName": "LendingProtocol",
      "contractAddress": "0x7fb7cc0d318897ffba25349ac71a37cd2114eb69",
      "function": "initiateLiquidation(address)",
      "arguments": [
        "0x0000000000000000000000000000000000000B0b"
      ],
      "transaction": {
        "from": "0x823ef872d97f3cffd1e3d491c9560eb0d3886d56",
        "to": "0x7fb7cc0d318897ffba25349ac71a37cd2114eb69",
        "gas": "0x1b744",
        "value": "0x0",
        "input": "0xa8a087950000000000000000000000000000000000000000000000000000000000000b0b",
        "nonce": "0x1a",
        "chainId": "0xbf02"
      },
      "additionalContracts": [],
      "isFixedGasLimit": false
    }
  ],
  "receipts": [
    {
      "status": "0x1",
      "cumulativeGasUsed": "0x95fbb",
      "logs": [
        {
          "address": "0x7b3edd4a3b0ab650b12482c9a0502373479a9715",
          "topics": [
            "0xddf252ad1be2c89b69c2b068fc378daa952ba7f163c4a11628f55a4df523b3ef",
            "0x0000000000000000000000000000000000000000000000000000000000000000",
            "0x000000000000000000000000823ef872d97f3cffd1e3d491c9560eb0d3886d56"
          ],
          "data": "0x00000000000000000000000000000000000000000000003635c9adc5dea00000",
          "blockHash": "0xc1fa3d07b2d58ed7a82abc93e8c14048968c646cd05224c11f8ab97fc11084b6",
          "blockNumber": "0xb3590d",
          "blockTimestamp": "0x69221f7a",
          "transactionHash": "0xebd383f4aa29eb0a555781576eafda3ebbf470e5597e5cf7ecd143ab158cf38e",
          "transactionIndex": "0x1",
          "logIndex": "0x0",
          "removed": false
        }
      ],
      "logsBloom": "0x00000020000000000000000000000000000000000000000000000000000000000000000000000000000000000000000000000000000000000000000000000000000000000000000000000008000000000000000000000000000000000000000000000000020000000000000000000800000000000000000000000010000000010000000000000200000000000000000100000000000000000000000000000000000000000000000000000000000000000000000000000000000000000000000000000002000000000000000000800000000000000000000000000000000020000000000000000000000000000000000000000000000000000000000000000080",
      "type": "0x2",
      "transactionHash": "0xebd383f4aa29eb0a555781576eafda3ebbf470e5597e5cf7ecd143ab158cf38e",
      "transactionIndex": "0x1",
      "blockHash": "0xc1fa3d07b2d58ed7a82abc93e8c14048968c646cd05224c11f8ab97fc11084b6",
      "blockNumber": "0xb3590d",
      "gasUsed": "0x8a294",
      "effectiveGasPrice": "0xff",
      "from": "0x823ef872d97f3cffd1e3d491c9560eb0d3886d56",
      "to": null,
      "contractAddress": "0x7b3edd4a3b0ab650b12482c9a0502373479a9715",
      "l1BaseFeeScalar": "0x558",
      "l1BlobBaseFee": "0x1",
      "l1BlobBaseFeeScalar": "0xc5fc5",
      "l1Fee": "0x700",
      "l1GasPrice": "0xc",
      "l1GasUsed": "0x685b",
      "operatorFeeConstant": "0x568516040",
      "operatorFeeScalar": "0xfa56ea00"
    },
    {
      "status": "0x1",
      "cumulativeGasUsed": "0x60b78",
      "logs": [],
      "logsBloom": "0x00000000000000000000000000000000000000000000000000000000000000000000000000000000000000000000000000000000000000000000000000000000000000000000000000000000000000000000000000000000000000000000000000000000000000000000000000000000000000000000000000000000000000000000000000000000000000000000000000000000000000000000000000000000000000000000000000000000000000000000000000000000000000000000000000000000000000000000000000000000000000000000000000000000000000000000000000000000000000000000000000000000000000000000000000000000",
      "type": "0x2",
      "transactionHash": "0x67cb72084cb008db2c28d7c9ab8288c4bc658fc853fa53d562931e61e4e7366e",
      "transactionIndex": "0x1",
      "blockHash": "0x749eb85aed363382997b969e7c5563c879d745910c6695223d40574c2e8db206",
      "blockNumber": "0xb3590e",
      "gasUsed": "0x54e51",
      "effectiveGasPrice": "0xff",
      "from": "0x823ef872d97f3cffd1e3d491c9560eb0d3886d56",
      "to": null,
      "contractAddress": "0x0bc0d4533d9ecffd21eed49cbdfa677a384fa96d",
      "l1BaseFeeScalar": "0x558",
      "l1BlobBaseFee": "0x1",
      "l1BlobBaseFeeScalar": "0xc5fc5",
      "l1Fee": "0x3c1",
      "l1GasPrice": "0xc",
      "l1GasUsed": "0x37ff",
      "operatorFeeConstant": "0x568516040",
      "operatorFeeScalar": "0xfa56ea00"
    },
    {
      "status": "0x1",
      "cumulativeGasUsed": "0x18f546",
      "logs": [],
      "logsBloom": "0x00000000000000000000000000000000000000000000000000000000000000000000000000000000000000000000000000000000000000000000000000000000000000000000000000000000000000000000000000000000000000000000000000000000000000000000000000000000000000000000000000000000000000000000000000000000000000000000000000000000000000000000000000000000000000000000000000000000000000000000000000000000000000000000000000000000000000000000000000000000000000000000000000000000000000000000000000000000000000000000000000000000000000000000000000000000",
      "type": "0x2",
      "transactionHash": "0x947d8e46ca712679e62b901425cac0e9a1bfc2aad1cc1ab8deabadb10cf38997",
      "transactionIndex": "0x2",
      "blockHash": "0x749eb85aed363382997b969e7c5563c879d745910c6695223d40574c2e8db206",
      "blockNumber": "0xb3590e",
      "gasUsed": "0x12e9ce",
      "effectiveGasPrice": "0xff",
      "from": "0x823ef872d97f3cffd1e3d491c9560eb0d3886d56",
      "to": null,
      "contractAddress": "0x43ea72b2c65b1e8a44150b1a438751e196b5c6f5",
      "l1BaseFeeScalar": "0x558",
      "l1BlobBaseFee": "0x1",
      "l1BlobBaseFeeScalar": "0xc5fc5",
      "l1Fee": "0xe79",
      "l1GasPrice": "0xc",
      "l1GasUsed": "0xd7b7",
      "operatorFeeConstant": "0x568516040",
      "operatorFeeScalar": "0xfa56ea00"
    },
    {
      "status": "0x1",
      "cumulativeGasUsed": "0x1e447b",
      "logs": [],
      "logsBloom": "0x00000000000000000000000000000000000000000000000000000000000000000000000000000000000000000000000000000000000000000000000000000000000000000000000000000000000000000000000000000000000000000000000000000000000000000000000000000000000000000000000000000000000000000000000000000000000000000000000000000000000000000000000000000000000000000000000000000000000000000000000000000000000000000000000000000000000000000000000000000000000000000000000000000000000000000000000000000000000000000000000000000000000000000000000000000000",
      "type": "0x2",
      "transactionHash": "0x7700643069e9b51b8d8fc56f8ffb9f2b52d4ed2b984988ccaf785ba25303f650",
      "transactionIndex": "0x3",
      "blockHash": "0x749eb85aed363382997b969e7c5563c879d745910c6695223d40574c2e8db206",
      "blockNumber": "0xb3590e",
      "gasUsed": "0x54f35",
      "effectiveGasPrice": "0xff",
      "from": "0x823ef872d97f3cffd1e3d491c9560eb0d3886d56",
      "to": null,
      "contractAddress": "0x7fb7cc0d318897ffba25349ac71a37cd2114eb69",
      "l1BaseFeeScalar": "0x558",
      "l1BlobBaseFee": "0x1",
      "l1BlobBaseFeeScalar": "0xc5fc5",
      "l1Fee": "0x3d2",
      "l1GasPrice": "0xc",
      "l1GasUsed": "0x38fd",
      "operatorFeeConstant": "0x568516040",
      "operatorFeeScalar": "0xfa56ea00"
    },
    {
      "status": "0x1",
      "cumulativeGasUsed": "0x1f0c2f",
      "logs": [
        {
          "address": "0x7b3edd4a3b0ab650b12482c9a0502373479a9715",
          "topics": [
            "0xddf252ad1be2c89b69c2b068fc378daa952ba7f163c4a11628f55a4df523b3ef",
            "0x0000000000000000000000000000000000000000000000000000000000000000",
            "0x00000000000000000000000000000000000000000000000000000000000a11ce"
          ],
          "data": "0x0000000000000000000000000000000000000000000000056bc75e2d63100000",
          "blockHash": "0x749eb85aed363382997b969e7c5563c879d745910c6695223d40574c2e8db206",
          "blockNumber": "0xb3590e",
          "blockTimestamp": "0x69221f7c",
          "transactionHash": "0x73bb7753e5ee36616563aca22ad65fd58f1e26f3efe9e974b2a2a4ebdd67eebb",
          "transactionIndex": "0x4",
          "logIndex": "0x0",
          "removed": false
        }
      ],
      "logsBloom": "0x00000000000000000000000000000000000000000000000000000000000000000000000000000000000000000000000000000000000000000000000000000000000000000000000000000008000000000000000000000000000000000000000000000000020000000000000000000800000000000000000000000010000000010000000000000200000000000000000100000000000000000000000000000000000000000000000000000000000000000020000000008000000000004000000000000002000000000000000000000000000000000000000000000000000020000000000000000000000000000000000000000000000000000000000000000000",
      "type": "0x2",
      "transactionHash": "0x73bb7753e5ee36616563aca22ad65fd58f1e26f3efe9e974b2a2a4ebdd67eebb",
      "transactionIndex": "0x4",
      "blockHash": "0x749eb85aed363382997b969e7c5563c879d745910c6695223d40574c2e8db206",
      "blockNumber": "0xb3590e",
      "gasUsed": "0xc7b4",
      "effectiveGasPrice": "0xff",
      "from": "0x823ef872d97f3cffd1e3d491c9560eb0d3886d56",
      "to": "0x7b3edd4a3b0ab650b12482c9a0502373479a9715",
      "contractAddress": null,
      "l1BaseFeeScalar": "0x558",
      "l1BlobBaseFee": "0x1",
      "l1BlobBaseFeeScalar": "0xc5fc5",
      "l1Fee": "0x6b",
      "l1GasPrice": "0xc",
      "l1GasUsed": "0x640",
      "operatorFeeConstant": "0x568516040",
      "operatorFeeScalar": "0xfa56ea00"
    },
    {
      "status": "0x1",
      "cumulativeGasUsed": "0x1fd3d7",
      "logs": [
        {
          "address": "0x7b3edd4a3b0ab650b12482c9a0502373479a9715",
          "topics": [
            "0xddf252ad1be2c89b69c2b068fc378daa952ba7f163c4a11628f55a4df523b3ef",
            "0x0000000000000000000000000000000000000000000000000000000000000000",
            "0x0000000000000000000000000000000000000000000000000000000000000b0b"
          ],
          "data": "0x0000000000000000000000000000000000000000000000056bc75e2d63100000",
          "blockHash": "0x749eb85aed363382997b969e7c5563c879d745910c6695223d40574c2e8db206",
          "blockNumber": "0xb3590e",
          "blockTimestamp": "0x69221f7c",
          "transactionHash": "0x05c6d7c45c3af3d636509c87387a91ceced67b43fd6e832274602d7d58687a07",
          "transactionIndex": "0x5",
          "logIndex": "0x1",
          "removed": false
        }
      ],
      "logsBloom": "0x00000000000000000000000000000000000000000000000000000000000000000000000000000000000000000000000000000000000000000000000000200000000000000000000000000008000000000000000000000000000000000000000000000000020000000000000000000800000000000000000000000010000000010000000000000200000000000000000100000000000000000000000000000000000000000000000000000000000000000000000000000000000000000000000000010002000000000000000000000000000000000000000000000000000020004000000000000000000000000000000000000000000000000000000000000000",
      "type": "0x2",
      "transactionHash": "0x05c6d7c45c3af3d636509c87387a91ceced67b43fd6e832274602d7d58687a07",
      "transactionIndex": "0x5",
      "blockHash": "0x749eb85aed363382997b969e7c5563c879d745910c6695223d40574c2e8db206",
      "blockNumber": "0xb3590e",
      "gasUsed": "0xc7a8",
      "effectiveGasPrice": "0xff",
      "from": "0x823ef872d97f3cffd1e3d491c9560eb0d3886d56",
      "to": "0x7b3edd4a3b0ab650b12482c9a0502373479a9715",
      "contractAddress": null,
      "l1BaseFeeScalar": "0x558",
      "l1BlobBaseFee": "0x1",
      "l1BlobBaseFeeScalar": "0xc5fc5",
      "l1Fee": "0x6b",
      "l1GasPrice": "0xc",
      "l1GasUsed": "0x640",
      "operatorFeeConstant": "0x568516040",
      "operatorFeeScalar": "0xfa56ea00"
    },
    {
      "status": "0x1",
      "cumulativeGasUsed": "0x207f8a",
      "logs": [],
      "logsBloom": "0x00000000000000000000000000000000000000000000000000000000000000000000000000000000000000000000000000000000000000000000000000000000000000000000000000000000000000000000000000000000000000000000000000000000000000000000000000000000000000000000000000000000000000000000000000000000000000000000000000000000000000000000000000000000000000000000000000000000000000000000000000000000000000000000000000000000000000000000000000000000000000000000000000000000000000000000000000000000000000000000000000000000000000000000000000000000",
      "type": "0x2",
      "transactionHash": "0x281d408a3ac1aad4c13315a9099b172416264b1777f6526976ad2fc6e8dbec7f",
      "transactionIndex": "0x6",
      "blockHash": "0x749eb85aed363382997b969e7c5563c879d745910c6695223d40574c2e8db206",
      "blockNumber": "0xb3590e",
      "gasUsed": "0xabb3",
      "effectiveGasPrice": "0xff",
      "from": "0x823ef872d97f3cffd1e3d491c9560eb0d3886d56",
      "to": "0x7fb7cc0d318897ffba25349ac71a37cd2114eb69",
      "contractAddress": null,
      "l1BaseFeeScalar": "0x558",
      "l1BlobBaseFee": "0x1",
      "l1BlobBaseFeeScalar": "0xc5fc5",
      "l1Fee": "0x6b",
      "l1GasPrice": "0xc",
      "l1GasUsed": "0x640",
      "operatorFeeConstant": "0x568516040",
      "operatorFeeScalar": "0xfa56ea00"
    },
    {
      "status": "0x1",
      "cumulativeGasUsed": "0x212b31",
      "logs": [],
      "logsBloom": "0x00000000000000000000000000000000000000000000000000000000000000000000000000000000000000000000000000000000000000000000000000000000000000000000000000000000000000000000000000000000000000000000000000000000000000000000000000000000000000000000000000000000000000000000000000000000000000000000000000000000000000000000000000000000000000000000000000000000000000000000000000000000000000000000000000000000000000000000000000000000000000000000000000000000000000000000000000000000000000000000000000000000000000000000000000000000",
      "type": "0x2",
      "transactionHash": "0x9c4cc310acc94b201d5b18d11a8bffa7eca79d7bbf0c2d23669ac601514e886c",
      "transactionIndex": "0x7",
      "blockHash": "0x749eb85aed363382997b969e7c5563c879d745910c6695223d40574c2e8db206",
      "blockNumber": "0xb3590e",
      "gasUsed": "0xaba7",
      "effectiveGasPrice": "0xff",
      "from": "0x823ef872d97f3cffd1e3d491c9560eb0d3886d56",
      "to": "0x7fb7cc0d318897ffba25349ac71a37cd2114eb69",
      "contractAddress": null,
      "l1BaseFeeScalar": "0x558",
      "l1BlobBaseFee": "0x1",
      "l1BlobBaseFeeScalar": "0xc5fc5",
      "l1Fee": "0x6b",
      "l1GasPrice": "0xc",
      "l1GasUsed": "0x640",
      "operatorFeeConstant": "0x568516040",
      "operatorFeeScalar": "0xfa56ea00"
    },
    {
      "status": "0x1",
      "cumulativeGasUsed": "0x226943",
      "logs": [
        {
          "address": "0x43ea72b2c65b1e8a44150b1a438751e196b5c6f5",
          "topics": [
            "0x805cd298070afacb59b0ad84de28e6bf29b424f566c3ed0f61944a0378b947bf",
            "0x00000000000000000000000000000000000000000000000000000000000a11ce"
          ],
          "data": "0x0000000000000000000000000000000000000000000000000000000000b359130000000000000000000000000000000000000000000000000000000000b359180000000000000000000000000000000000000000000000000000000000000000",
          "blockHash": "0x749eb85aed363382997b969e7c5563c879d745910c6695223d40574c2e8db206",
          "blockNumber": "0xb3590e",
          "blockTimestamp": "0x69221f7c",
          "transactionHash": "0xccd41e69e6d6d271cc0c8eb1ceb77e0f261b5019903f8298b61692e6cf2c8f96",
          "transactionIndex": "0x8",
          "logIndex": "0x2",
          "removed": false
        }
      ],
      "logsBloom": "0x00000000000000000000000000000000000000000000000000000000100000000000000000000000002000000000000000000000000000000000000000000010000000000000000000000000000000010000008000000000000000000000000000000000000000000000000000000000000000000000000000000000000000000000000000000000000000020000000000000000000000000000000000000000000000000000000000000000000000000020000000008000000000004000000000000000000000000000000000000000000000000000000000000000000000000000000000000000000000000000000000000000000000000000000000000000",
      "type": "0x2",
      "transactionHash": "0xccd41e69e6d6d271cc0c8eb1ceb77e0f261b5019903f8298b61692e6cf2c8f96",
      "transactionIndex": "0x8",
      "blockHash": "0x749eb85aed363382997b969e7c5563c879d745910c6695223d40574c2e8db206",
      "blockNumber": "0xb3590e",
      "gasUsed": "0x13e12",
      "effectiveGasPrice": "0xff",
      "from": "0x823ef872d97f3cffd1e3d491c9560eb0d3886d56",
      "to": "0x7fb7cc0d318897ffba25349ac71a37cd2114eb69",
      "contractAddress": null,
      "l1BaseFeeScalar": "0x558",
      "l1BlobBaseFee": "0x1",
      "l1BlobBaseFeeScalar": "0xc5fc5",
      "l1Fee": "0x6b",
      "l1GasPrice": "0xc",
      "l1GasUsed": "0x640",
      "operatorFeeConstant": "0x568516040",
      "operatorFeeScalar": "0xfa56ea00"
    },
    {
      "status": "0x1",
      "cumulativeGasUsed": "0x23a749",
      "logs": [
        {
          "address": "0x43ea72b2c65b1e8a44150b1a438751e196b5c6f5",
          "topics": [
            "0x805cd298070afacb59b0ad84de28e6bf29b424f566c3ed0f61944a0378b947bf",
            "0x0000000000000000000000000000000000000000000000000000000000000b0b"
          ],
          "data": "0x0000000000000000000000000000000000000000000000000000000000b359130000000000000000000000000000000000000000000000000000000000b359180000000000000000000000000000000000000000000000000000000000000000",
          "blockHash": "0x749eb85aed363382997b969e7c5563c879d745910c6695223d40574c2e8db206",
          "blockNumber": "0xb3590e",
          "blockTimestamp": "0x69221f7c",
          "transactionHash": "0x5ecc48e5a8b480a5adfee29403fec4f095166d6c495dafed5ade492542310d11",
          "transactionIndex": "0x9",
          "logIndex": "0x3",
          "removed": false
        }
      ],
      "logsBloom": "0x00000000000000000000000000000000000000000000000000000000100000000000000000000000002000000000000000000000000000000000000000200010000000000000000000000000000000010000008000000000000000000000000000000000000000000000000000000000000000000000000000000000000000000000000000000000000000020000000000000000000000000000000000000000000000000000000000000000000000000000000000000000000000000000000000010000000000000000000000000000000000000000000000000000000000004000000000000000000000000000000000000000000000000000000000000000",
      "type": "0x2",
      "transactionHash": "0x5ecc48e5a8b480a5adfee29403fec4f095166d6c495dafed5ade492542310d11",
      "transactionIndex": "0x9",
      "blockHash": "0x749eb85aed363382997b969e7c5563c879d745910c6695223d40574c2e8db206",
      "blockNumber": "0xb3590e",
      "gasUsed": "0x13e06",
      "effectiveGasPrice": "0xff",
      "from": "0x823ef872d97f3cffd1e3d491c9560eb0d3886d56",
      "to": "0x7fb7cc0d318897ffba25349ac71a37cd2114eb69",
      "contractAddress": null,
      "l1BaseFeeScalar": "0x558",
      "l1BlobBaseFee": "0x1",
      "l1BlobBaseFeeScalar": "0xc5fc5",
      "l1Fee": "0x6b",
      "l1GasPrice": "0xc",
      "l1GasUsed": "0x640",
      "operatorFeeConstant": "0x568516040",
      "operatorFeeScalar": "0xfa56ea00"
    }
  ],
  "libraries": [],
  "pending": [],
  "returns": {},
  "timestamp": 1763843965161,
  "chain": 48898,
  "commit": "741fab6"
}